:020000040800F2
:100000000050002091150008B5140008BB1400082A
:10001000C1140008C7140008CD1400080000000037
:10002000000000000000000000000000D3140008E1
:10003000DF14000800000000EB140008F7140008AB
:10004000D9150008D9150008D9150008D9150008D8
:10005000D9150008D9150008D9150008D9150008C8
:10006000D9150008D9150008D9150008D9150008B8
:10007000D9150008D9150008D9150008D9150008A8
:10008000D9150008D9150008D9150008D915000898
:10009000D9150008D9150008D9150008D915000888
:1000A000D9150008D9150008D9150008D915000878
:1000B00005150008D9150008D9150008D91500083C
:1000C000D9150008D9150008D9150008D915000858
:1000D000D9150008D9150008D9150008D915000848
:1000E000D9150008D9150008D9150008000000002E
:1000F0000000000000000000000000000000000000
:0C01000000000000000000005FF808F1A3
:10010C0010B5054C237833B9044B13B10448AFF345
:10011C0000800123237010BD84000020000000002B
:10012C00E040000808B5034B1BB103490348AFF38B
:10013C00008008BD0000000088000020E04000089E
:10014C0080B483B000AF7860094A7B6852F82330E2
:10015C00012B06D1064A7B68002142F823100123AB
:10016C0000E0002318460C37BD4680BC704700BF2A
:10017C00D000002080B500AF0020FFF7E1FF034660
:10018C00184680BD80B582B000AF00237B6053E081
:10019C002D4A7B6852F823202C497B6841F8232098
:1001AC002B4A7B6852F8232027497B6841F823208F
:1001BC00284B1A6828497B6831F8133019461046C9
:1001CC0001F01EFD03461946214A7B6842F82310B4
:1001DC001E4A7B6852F823201B497B6851F8233058
:1001EC009A4226D1184A7B6852F8232018497B681A
:1001FC0051F823309A421CD1184A7B6852F82320BC
:10020C0013497B6851F823309A4212D0104A7B680C
:10021C0052F8232011497B6841F823200C4A7B6853
:10022C0052F82330012B04D10D4A7B68012142F88E
:10023C0023107B6801337B607B68022BA8DD00BF39
:10024C0000BF0837BD4680BDAC000020A0000020D8
:10025C00B80000200000002004000020C400002092
:10026C00D000002080B582B000AF0221264801F0FA
:10027C00C7FC0346FB71FB79002B1AD1234B1B786F
:10028C0083F00103DBB2002B06D0204B01221A7045
:10029C004FF4967001F032F81D4B1B68012B1DD1E9
:1002AC001C4B01221A7000224021174801F0BFFCA0
:1002BC0014E0164B00221A70002001F01FF8144BAA
:1002CC0000221A60134B1B78002B07D0114B002215
:1002DC001A70012240210C4801F0A9FC04210A48A3
:1002EC0001F08EFC0346002B0AD101224021064866
:1002FC0001F09DFC064B00221A60064B00221A707E
:10030C0000BF0837BD4680BD00080140DC0000205E
:10031C0018010020DD00002080B500AF0221054847
:10032C0001F06EFC0346012B0CBF01230023DBB252
:10033C00184680BD0008014080B500AF00F0CCFF2E
:10034C000346184680BD000080B500AF0122202175
:10035C00024801F06CFC00BF80BD00BF00080140EA
:10036C0080B500AF00222021024801F060FC00BFE4
:10037C0080BD00BF0008014080B500AF01224021C4
:10038C00024801F054FC00BF80BD00BF00080140D2
:10039C0080B500AF00224021024801F048FC00BFAC
:1003AC0080BD00BF0008014080B500AF144B1B7826
:1003BC00032B1CD0032B1FDC002B02D0012B0BD0EA
:1003CC001AE0012208210F4801F031FC0022102113
:1003DC000C4801F02CFC10E000220821094801F027
:1003EC0026FC01221021074801F021FC05E0082120
:1003FC00044801F034FC00E000BF00BF80BD00BF2A
:10040C00DE0000200008014080B500AF2D4B1B78AA
:10041C00032B3ED0032B4BDC002B02D0012B19D02D
:10042C0046E0FFF79DFFFFF7A5FE0346002B45D0E6
:10043C00FFF782FF0346002B40D0224B01221A709B
:10044C00FFF782FF204B14221A60FFF7A1FFFFF782
:10045C00ABFF33E01C4B1B68002B05DD1A4B1B68F4
:10046C00013B194A136011E0FFF756FF0346002BBE
:10047C0007D0144B00221A70FFF772FFFFF788FFAA
:10048C0004E0104B03221A70FFF776FFFFF78CFF86
:10049C0015E0FFF741FF0346002B06D0094B002265
:1004AC001A70FFF75DFFFFF773FFFFF77DFF06E0A4
:1004BC00044B00221A70FFF753FF00E000BF00BF8F
:1004CC0080BD00BFDE000020E000002080B584B0BD
:1004DC0002AF0346FB710B4B1B68002B0ED0094B74
:1004EC001868094B1B789BB25B0099B2FA1D4FF44C
:1004FC007A730093012301F00FFD00E000BF083771
:10050C00BD4680BDE40000200B00002080B483B009
:10051C0000AF0346FB71044AFB79137000BF0C3724
:10052C00BD4680BC704700BF0B00002080B584B076
:10053C0000AF03460A46FB711346BB71FB7923F0EF
:10054C000F03FB73BB79002B04D0FB7B43F004033C
:10055C00FB7303E0FB7B23F00403FB730C4B1B7856
:10056C00002B04D0FB7B43F00803FB7303E0FB7B05
:10057C0023F00803FB73FB7B23F00203FB73FB7B71
:10058C001846FFF7A3FF00BF1037BD4680BD00BF64
:10059C000A00002080B582B000AF0346FB71FB79E6
:1005AC0001211846FFF7C2FF012001F073F8FB7917
:1005BC0000211846FFF7BAFF012001F06BF800BFCD
:1005CC000837BD4680BD80B584B000AF0346FB71D3
:1005DC00FB791B09FB73FB7903F00F03BB73FB7BEC
:1005EC001B017B73BB7B1B013B737B7B1846FFF7AB
:1005FC00D1FF3B7B1846FFF7CDFF022001F04AF8F4
:10060C0000BF1037BD4680BD80B584B000AF034637
:10061C00FB71FB791B09FB73FB7903F00F03BB73B5
:10062C00FB7B1B015BB243F001035BB27B73BB7BB7
:10063C001B015BB243F001035BB23B737B7B18463F
:10064C00FFF7A8FF3B7B1846FFF7A4FF012001F042
:10065C0021F800BF1037BD4680BD000080B584B0C6
:10066C0000AF78607B68002B01D1012356E02D4A46
:10067C007B6813602C4B01221A70642001F00AF87D
:10068C000823FB72FB7A1846FFF720FF322001F09B
:10069C0001F80023FB6014E038237B727B7A012184
:1006AC001846FFF743FF052000F0F4FF7B7A00218A
:1006BC001846FFF73BFF052000F0ECFFFB68013309
:1006CC00FB60FB68022BE7DD2823BB72BB7A0121A0
:1006DC001846FFF72BFF052000F0DCFFBB7A00214A
:1006EC001846FFF723FF052000F0D4FF2820FFF762
:1006FC006AFF052000F0CEFF0C20FFF764FF0520F9
:10070C0000F0C8FF0620FFF75EFF052000F0C2FFD7
:10071C0000F00CF80A2000F0BDFF0023184610373B
:10072C00BD4680BDE40000200A00002080B500AF6B
:10073C000120FFF748FF022000F0ACFF00BF80BD96
:10074C0080B584B000AF03460A46FB711346BB71FB
:10075C00FB79002B02D1BB79FB7302E0BB794033F0
:10076C00FB73FB7B63F07F03DBB21846FFF72BFFB9
:10077C0000BF1037BD4680BD80B582B000AF786039
:10078C007B68002B0CD006E07B685A1C7A601B78C7
:10079C001846FFF739FF7B681B78002BF4D100E07B
:1007AC0000BF0837BD4680BD80B586B000AF00F0F5
:1007BC000FFF00F0A5F800F059F900F0DDF800F09B
:1007CC0009F9484802F078FC4FF4FA7000F062FF27
:1007DC000023FB752023BB7511E0BB7D9BB25B0036
:1007EC0099B264230122404801F094FC0346002B8B
:1007FC0002D1BB7DFB7505E0BB7D0133BB75BB7DB9
:10080C00272BEAD9FB7D002B17D138237B7511E000
:10081C007B7D9BB25B0099B264230122324801F0CC
:10082C0079FC0346002B02D17B7DFB7505E07B7DBB
:10083C0001337B757B7D3F2BEAD9FB7D002B2BD0C5
:10084C00FB7D1846FFF762FE2748FFF707FFFFF70F
:10085C006DFF00210020FFF773FF2448FFF78CFF8A
:10086C0000210120FFF76CFFFA7D3B1D2049184643
:10087C0002F0F6FF3B1D1846FFF77EFF4FF4FA60BF
:10088C0000F008FFFFF752FF00210020FFF758FF90
:10089C001848FFF771FF16E01348FFF7DFFEFFF76C
:1008AC0045FF00210020FFF74BFF1348FFF764FFC3
:1008BC0000210120FFF744FF1048FFF75DFF40F6D1
:1008CC00B83000F0E7FE00F055FBFFF75BFC00F0E2
:1008DC0091FBFFF799FDFFF7C5FC0A2000F0DAFE4B
:1008EC00F3E700BF8401002030010020F84000082D
:1008FC00044100080C4100081C4100082C41000870
:10090C0080B590B000AF07F11803282200211846DB
:10091C0002F09EFF3B1D00221A605A609A60DA605A
:10092C001A610223BB610123BB621023FB6200230B
:10093C007B6307F11803184601F074FF0346002B84
:10094C0001D000F0F5F80F237B600023BB6000237F
:10095C00FB6000233B6100237B613B1D002118469B
:10096C0002F0E0F90346002B01D000F0E1F800BFE3
:10097C004037BD4680BD000080B500AF124B134A16
:10098C001A60114B124A5A600F4B00229A600E4BA0
:10099C000022DA600C4B4FF480421A610A4B0022A1
:1009AC005A61094B00229A61074B0022DA61064B0F
:1009BC0000221A62044801F06BF90346002B01D0A7
:1009CC0000F0B6F800BF80BD30010020005400409C
:1009DC00A086010080B586B000AF07F108030022A5
:1009EC001A605A609A60DA603B4600221A605A60BC
:1009FC001D4B4FF080421A601B4B41F63F725A6000
:100A0C00194B00229A60184B0922DA60164B00220F
:100A1C001A61154B00229A61134802F0FDFA034645
:100A2C00002B01D000F084F84FF48053BB6007F129
:100A3C00080319460C4802F081FC0346002B01D038
:100A4C0000F076F800233B6000237B603B461946A0
:100A5C00054802F063FE0346002B01D000F068F855
:100A6C0000BF1837BD4680BD8401002080B586B01C
:100A7C0000AF07F1080300221A605A609A60DA602E
:100A8C00234B9B69224A43F004039361204B9B69DF
:100A9C0003F004037B607B681D4B9B691C4A43F08D
:100AAC00080393611A4B9B6903F008033B603B6896
:100ABC0000227821174801F0BAF80723BB60002305
:100ACC00FB6000233B6107F108031946114800F055
:100ADC0013FF7823BB600123FB6000233B610223DF
:100AEC007B6107F1080319460A4800F005FF40F244
:100AFC003F13BB600023FB6000233B6107F108033D
:100B0C001946054800F0F8FE00BF1837BD4680BDF9
:100B1C000010024000080140000C014080B582B07A
:100B2C0000AF786000F0FEFB00BF0837BD4680BD0B
:100B3C0080B400AF72B600BFFEE780B582B000AFE4
:100B4C0078603960FFF7F2FD00210020FFF7F8FD17
:100B5C007868FFF711FE00210120FFF7F1FD3868DE
:100B6C00FFF70AFE00BF0837BD4680BD80B586B0D2
:100B7C0000AF3B4611220021184602F069FE3B46AD
:100B8C001B4A92E8030018600433198002330A0CE4
:100B9C001A7000237B6119E0164B1B781A467B698F
:100BAC00934208DA7B69063307F1180213442A22B0
:100BBC0003F8182C07E07B69063307F1180213447D
:100BCC005F2203F8182C7B6901337B617B69032B53
:100BDC00E2DD0023BB7200210120FFF7B1FD3B4693
:100BEC001846FFF7C9FD00BF1837BD4680BD00BFD2
:100BFC003C410008EC00002080B582B000AF00231F
:100C0C007B6007E0094A7B68134400221A707B68FA
:100C1C0001337B607B68032BF4DD054B00221A70DB
:100C2C00FFF7A4FF00BF0837BD4680BDE8000020D9
:100C3C00EC00002080B582B000AF0346FB710F4B77
:100C4C005A780E4B1A700D4B9A780C4B5A700B4B02
:100C5C00DA780A4B9A70094AFB79D370084B1B78E7
:100C6C00032B05D8064B1B780133DAB2044B1A70F0
:100C7C00FFF77CFF00BF0837BD4680BDE8000020B1
:100C8C00EC00002080B485B000AF786039600023A0
:100C9C00FB600EE0FB687A6813441A78FB683968CD
:100CAC000B441B789A4201D0002306E0FB68013309
:100CBC00FB60FB68032BEDDD012318461437BD46A2
:100CCC0080BC704780B586B000AF4FF0FF337B61BE
:100CDC00012201216C4800F0AAFF012202216A487E
:100CEC0000F0A5FF01220421674800F0A0FF0122BB
:100CFC000821654800F09BFF00233B61A5E0012221
:100D0C000121614800F093FF012202215E4800F0AE
:100D1C008EFF012204215C4800F089FF012208218A
:100D2C00594800F084FF3B69032B23D801A252F8E9
:100D3C0023F000BF510D00085D0D0008690D00087F
:100D4C00750D0008002201214F4800F070FF11E0E2
:100D5C00002202214C4800F06AFF0BE00022042123
:100D6C00494800F064FF05E000220821464800F0E5
:100D7C005EFF00BF1021444800F042FF0346002BE9
:100D8C000CBF01230023DBB2BB6020213E4800F0E6
:100D9C0037FF0346002B0CBF01230023DBB27B6023
:100DAC004FF48071384800F02BFF0346002B0CBF2A
:100DBC0001230023DBB23B60BB68002B05D17B68B1
:100DCC00002B02D13B68002B3CD04FF0FF33FB6073
:100DDC00BB68002B02D00023FB600AE07B68002B71
:100DEC0002D00123FB6004E03B68002B01D00223FE
:100DFC00FB603B69002B03D1FB6801337B6129E06D
:100E0C003B69012B03D1FB6804337B6122E03B6916
:100E1C00022B03D1FB6807337B611BE0FB68002BC3
:100E2C0003D16FF001037B6114E0FB68012B02D14D
:100E3C0000237B610EE0FB68022B0BD16FF00203E9
:100E4C007B6107E03B6901333B613B69032B7FF717
:100E5C0056AF00E000BF012201210B4800F0E7FE75
:100E6C0001220221084800F0E2FE0122042106487A
:100E7C0000F0DDFE01220821034800F0D8FE7B695A
:100E8C0018461837BD4680BD000C014080B582B0B5
:100E9C0000AFFFF717FF78607B68B3F1FF3F22D0FC
:100EAC00154B1B68002B21D1134B01221A607B6858
:100EBC00002B08DB7B68092B05DC7B68DAB20F4B57
:100ECC001A70012313E07B6813F1020F03D10C4B52
:100EDC0001221A600AE07B6813F1030F06D1094B5B
:100EEC0001221A6002E0044B00221A60002318460B
:100EFC000837BD4680BD00BF04010020080100205A
:100F0C000C0100201001002080B500AFFFF7BEFFE0
:100F1C000346184680BD000080B400AF024B1B781E
:100F2C001846BD4680BC70470801002080B400AF55
:100F3C00064B1B68002B04D0044B00221A600123C3
:100F4C0000E000231846BD4680BC70470C01002011
:100F5C0080B400AF064B1B68002B04D0044B00225E
:100F6C001A60012300E000231846BD4680BC704780
:100F7C001001002080B500AF144B00221A70144BE6
:100F8C0000221A70134B00221A70134B00221A60A5
:100F9C00124B4EF660221A60114B00221A60114B54
:100FAC0000221A60104B01221A700F4B02225A7049
:100FBC000D4B03229A700C4B0422DA700B490C482F
:100FCC00FFF7BBFDFFF718FE00BF80BDF40000204B
:100FDC00F5000020F6000020F80000201000002092
:100FEC00FC000020000100200C00002044410008FF
:100FFC004841000880B584B000AF00F041FB386078
:10100C00984B1B78022B14D1974B1B683A689A4269
:10101C00C0F02381934B00221A70944B00221A705B
:10102C00934B00221A6093499348FFF786FDFFF714
:10103C00E3FD8C4B1B78002B11D1904B1B78002BB4
:10104C000DD1FFF785FF0346002B08D08B4B0122F7
:10105C001A708B498B48FFF770FDFFF7CDFD814B64
:10106C001B78002B06D1FFF761FF0346002B01D044
:10107C00FFF7C2FD7B4B1B78002B18D1FFF744FF09
:10108C000346002B13D0FFF747FF0346FB73FB7B94
:10109C00092B01D90923FB73FB7B1846FFF7CAFD0B
:1010AC00794B1B78032B02D96E4B01221A706D4BB6
:1010BC001B78012B40F0D280704B1B78032B00F275
:1010CC00C38001A252F823F0E51000087F1100083C
:1010DC00C1110008FF1100086C496D48FFF7D2FDE3
:1010EC000346002B16D06B4B01221A605F4B00227B
:1010FC001A70694B4EF660221A6068496848FFF70F
:10110C001CFD5E4B00221A70564B00221A70FFF722
:10111C0073FDA3E0554B1B780133DAB2534B1A70B5
:10112C00FFF76AFD514B1B78022B1AD94D4B02224B
:10113C001A70594B1A683B6813444B4A13604C4B5A
:10114C0001221A60544B1B68564A934204D8524BE6
:10115C001B685B00504A136053495448FFF7EDFC81
:10116C007CE053495348FFF7E8FC3E4B00221A70D1
:10117C0074E046494648FFF785FD0346002B0CD02A
:10118C003E4B02221A70374B00221A7039494A48DA
:10119C00FFF7D3FCFFF730FD60E048494848FFF704
:1011AC00CCFC364B00221A702E4B00221A70FFF723
:1011BC0023FD53E00023BB600BE0354ABB681344AE
:1011CC001978404ABB6813440A461A70BB6801334D
:1011DC00BB60BB68032BF0DD284B03221A70214B3C
:1011EC0000221A7023493848FFF7A7FCFFF704FDCB
:1011FC0034E034492648FFF745FD0346002B16D052
:10120C0000237B600BE02F4A7B68134419781F4A3C
:10121C007B6813440A461A707B6801337B607B68D9
:10122C00032BF0DD13492948FFF787FC03E028491D
:10123C002848FFF782FC114B00221A70094B002240
:10124C001A70FFF7D9FC09E00C4B00221A70054B01
:10125C0000221A70FFF7D0FC00E000BF1037BD462B
:10126C0080BD00BFF4000020F8000020F600002034
:10127C00000100204441000848410008F50000200E
:10128C005841000864410008EC0000200C000020CC
:10129C00E8000020FC000020100000207441000831
:1012AC0084410008DF93040090410008A04100082D
:1012BC00A8410008B4410008C4410008D44100080A
:1012CC00E4410008F0000020F4410008044200084A
:1012DC00104200082042000880B400AF064B1B6887
:1012EC00002B04D0044B00221A60012300E00023E1
:1012FC001846BD4680BC7047FC00002080B483B00B
:10130C0000AF7860054A7B681360054B00221A60B9
:10131C0000BF0C37BD4680BC704700BF14010020D5
:10132C001801002080B400AF114B1B68002B0BDDA3
:10133C000F4B1B68013B0E4A13600D4B1B68002BB7
:10134C0002DC0C4B01221A600B4B1B68002B0BDDD3
:10135C00094B1B68013B084A1360074B1B68002BA9
:10136C0002DC064B01221A6000BFBD4680BC7047F0
:10137C0014010020180100201C0100202001002075
:10138C0080B485B000AF154B9B69144A43F0010340
:10139C009361124B9B6903F00103BB60BB680F4B5D
:1013AC00DB690E4A43F08053D3610C4BDB6903F0CD
:1013BC0080537B607B680A4B5B68FB60FB6823F0A7
:1013CC00E063FB60FB6843F00073FB60044AFB685E
:1013DC00536000BF1437BD4680BC704700100240FC
:1013EC000000014080B588B000AF786007F11003B1
:1013FC0000221A605A609A60DA607B681B68154A92
:10140C00934223D1144B9B69134A43F00803936115
:10141C00114B9B6903F00803FB60FB68C0233B6125
:10142C0012237B610323FB6107F1100319460B4860
:10143C0000F062FA084BDB69074A43F40013D361EE
:10144C00054BDB6903F40013BB60BB6800BF20379E
:10145C00BD4680BD0054004000100240000C01400D
:10146C0080B584B000AF78607B681B68B3F1804FA7
:10147C0013D10C4BDB690B4A43F00103D361094BCD
:10148C00DB6903F00103FB60FB68002200211C20D8
:10149C0000F0FBF91C2000F014FA00BF1037BD4619
:1014AC0080BD00BF0010024080B400AFFEE780B4E6
:1014BC0000AFFEE780B400AFFEE780B400AFFEE7FC
:1014CC0080B400AFFEE780B400AF00BFBD4680BC67
:1014DC00704780B400AF00BFBD4680BC704780B47D
:1014EC0000AF00BFBD4680BC704780B500AF00F0B8
:1014FC00B5F800BF80BD000080B500AF024801F018
:10150C002DFE00BF80BD00BF8401002080B586B0D9
:10151C0000AF7860144A154BD31A7B617B693B6131
:10152C00134B1B68002B02D1114B124A1A60104B43
:10153C001A687B6813443A699A4207D202F05EF942
:10154C0003460C221A604FF0FF3309E0084B1B686E
:10155C00FB60074B1A687B681344054A1360FB68F1
:10156C0018461837BD4680BD00500020000400000E
:10157C0024010020E001002080B400AF00BFBD4674
:10158C0080BC7047FFF7F8FF0B480C490C4A00234E
:10159C0002E0D458C4500433C4188C42F9D3094A1D
:1015AC00094C002301E013600432A242FBD302F089
:1015BC002BF9FFF7F9F87047000000208400002099
:1015CC009442000884000020E0010020FEE70000A7
:1015DC0080B500AF084B1B68074A43F0100313603B
:1015EC00032000F047F90F2000F008F8FFF7C8FEC1
:1015FC000023184680BD00BF0020024080B582B099
:10160C0000AF7860124B1A68124B1B7819464FF4D6
:10161C007A73B3FBF1F3B2FBF3F3184600F05FF906
:10162C000346002B01D001230EE07B680F2B0AD858
:10163C00002279684FF0FF3000F027F9064A7B68EA
:10164C001360002300E0012318460837BD4680BD17
:10165C00140000201C0000201800002080B400AFF3
:10166C00054B1B781A46054B1B681344034A136041
:10167C0000BFBD4680BC70471C000020CC01002080
:10168C0080B400AF024B1B681846BD4680BC704747
:10169C00CC01002080B584B000AF7860FFF7F0FF7C
:1016AC00B8607B68FB60FB68B3F1FF3F05D00A4B69
:1016BC001B781A46FB681344FB6000BFFFF7E0FF82
:1016CC000246BB68D31AFA689A42F7D800BF00BF2B
:1016DC001037BD4680BD00BF1C00002080B485B013
:1016EC0000AF78607B6803F00703FB600C4BDB6892
:1016FC00BB60BA684FF6FF031340BB60FB681A026D
:10170C00BB68134343F0BF6343F40033BB60044A2C
:10171C00BB68D36000BF1437BD4680BC704700BFA8
:10172C0000ED00E080B400AF044BDB681B0A03F053
:10173C0007031846BD4680BC704700BF00ED00E0B3
:10174C0080B483B000AF0346FB7197F90730002BD0
:10175C000BDBFB7903F01F02064997F907305B0995
:10176C00012000FA02F241F8232000BF0C37BD46DD
:10177C0080BC704700E100E080B483B000AF03464A
:10178C003960FB7197F90730002B0ADB3B68DAB242
:10179C000C4997F907301201D2B20B4483F800239D
:1017AC000AE03B68DAB20849FB7903F00F03043B0B
:1017BC001201D2B20B441A7600BF0C37BD4680BC66
:1017CC00704700BF00E100E000ED00E080B489B09C
:1017DC0000AFF860B9607A60FB6803F00703FB6147
:1017EC00FB69C3F10703042B28BF0423BB61FB690E
:1017FC000433062B02D9FB69033B00E000237B6119
:10180C004FF0FF32BB6902FA03F3DA43BB681A40AC
:10181C007B699A404FF0FF317B6901FA03F3D9439E
:10182C007B680B40134318462437BD4680BC704779
:10183C0080B582B000AF78607B68013BB3F1807FEC
:10184C0001D301230FE00A4A7B68013B53600F214F
:10185C004FF0FF30FFF790FF054B00229A60044BCE
:10186C0007221A60002318460837BD4680BD00BF0A
:10187C0010E000E080B582B000AF78607868FFF7C8
:10188C002DFF00BF0837BD4680BD80B586B000AFC8
:10189C000346B9607A60FB7300237B61FFF742FF5C
:1018AC0078617A68B9687869FFF790FF024697F912
:1018BC000F3011461846FFF75FFF00BF1837BD46C3
:1018CC0080BD80B582B000AF0346FB7197F907303D
:1018DC001846FFF735FF00BF0837BD4680BD80B501
:1018EC0082B000AF78607868FFF7A2FF0346184615
:1018FC000837BD4680BD000080B48BB000AF786067
:10190C00396000237B6200233B6269E101227B6A20
:10191C0002FA03F3FB613B681B68FA691340BB6175
:10192C00BA69FB699A4240F058813B685B689A4AF5
:10193C0093425ED0984A934275D8984A934258D0B5
:10194C00964A93426FD8964A934252D0944A934205
:10195C0069D8944A93424CD0924A934263D8924AA3
:10196C00934246D0904A93425DD8122B2AD8122B20
:10197C0059D801A252F823F0FF190008D919000810
:10198C00EB1900082D1A0008331A0008331A000846
:10199C00331A0008331A0008331A0008331A0008E7
:1019AC00331A0008331A0008331A0008331A0008D7
:1019BC00331A0008331A0008331A0008E11900081A
:1019CC00F5190008794A934213D02CE03B68DB6888
:1019DC003B6229E03B68DB6804333B6224E03B68F4
:1019EC00DB6808333B621FE03B68DB680C333B620F
:1019FC001AE03B689B68002B02D104233B6213E086
:101A0C003B689B68012B05D108233B627B68FA6914
:101A1C001A6109E008233B627B68FA695A6103E0AA
:101A2C0000233B6200E000BFBB69FF2B01D87B6841
:101A3C0001E07B6804337B61BB69FF2B02D87B6AB6
:101A4C009B0002E07B6A083B9B003B617B691A6848
:101A5C000F213B6901FA03F3DB431A40396A3B69F6
:101A6C0001FA03F31A437B691A603B685B6803F065
:101A7C008053002B00F0B1804D4B9B694C4A43F0D6
:101A8C00010393614A4B9B6903F00103BB60BB6884
:101A9C00484A7B6A9B08023352F82330FB607B6A0E
:101AAC0003F003039B000F2202FA03F3DB43FA68F3
:101ABC001340FB607B68404A934213D07B683F4ADB
:101ACC0093420DD07B683E4A934207D07B683D4AD7
:101ADC00934201D1032306E0042304E0022302E035
:101AEC00012300E000237A6A02F003029200934083
:101AFC00FA681343FB602F497B6A9B080233FA6830
:101B0C0041F823203B685B6803F48013002B06D05C
:101B1C002D4B9A682C49BB6913438B6006E02A4B0A
:101B2C009A68BB69DB43284913408B603B685B6850
:101B3C0003F40013002B06D0234BDA682249BB694F
:101B4C001343CB6006E0204BDA68BB69DB431E49CC
:101B5C001340CB603B685B6803F40033002B06D06A
:101B6C00194B5A681849BB6913434B6006E0164B76
:101B7C005A68BB69DB43144913404B603B685B6894
:101B8C0003F48033002B21D00F4B1A680E49BB692C
:101B9C0013430B6021E000BF000032100000311035
:101BAC000000221000002110000012100000111083
:101BBC00001002400000014000080140000C0140F0
:101BCC000010014000140140000401400B4B1A6846
:101BDC00BB69DB43094913400B607B6A01337B62B1
:101BEC003B681A687B6A22FA03F3002B7FF48EAEF3
:101BFC0000BF00BF2C37BD4680BC704700040140BD
:101C0C0080B485B000AF78600B467B807B689A68A7
:101C1C007B881340002B02D00123FB7301E00023CF
:101C2C00FB73FB7B18461437BD4680BC704780B4F1
:101C3C0083B000AF78600B467B8013467B707B785B
:101C4C00002B03D07A887B681A6103E07B881A0426
:101C5C007B681A6100BF0C37BD4680BC704780B4EE
:101C6C0085B000AF78600B467B807B68DB68FB60DF
:101C7C007A88FB6813401A04FB68D9437B880B40B5
:101C8C001A437B681A6100BF1437BD4680BC70478D
:101C9C0080B584B000AF78607B68002B01D1012344
:101CAC002BE17B6893F83D30DBB2002B06D17B68CF
:101CBC00002283F83C207868FFF794FB7B68242291
:101CCC0083F83D207B681B681A687B681B6822F0D0
:101CDC0001021A607B681B681A687B681B6842F4F7
:101CEC0000421A607B681B681A687B681B6822F4C8
:101CFC0000421A6001F05EF9F8607B685B68814A0B
:101D0C00934207D8FB68804A934294BF0123002377
:101D1C00DBB206E0FB687D4A934294BF01230023AB
:101D2C00DBB2002B01D00123E7E0FB68784AA2FB71
:101D3C0003239B0CBB607B681B685B6823F03F0133
:101D4C007B681B68BA680A435A607B681B681B6A0D
:101D5C0023F03F017B685B686A4A934202D8BB68F8
:101D6C00013309E0BB684FF4967202FB03F3694A36
:101D7C00A2FB03239B0901337A6812680B4313629D
:101D8C007B681B68DB6923F44F4222F0FF027B68FF
:101D9C005B685C498B4219D8FB68591E7B685B6891
:101DAC005B00B1FBF3F3591C40F6FC730B40002BAA
:101DBC000AD0FB68591E7B685B685B00B1FBF3F3D0
:101DCC000133C3F30B0351E004234FE07B689B68A2
:101DDC00002B11D1FB68581E7B6859680B465B00C1
:101DEC000B44B0FBF3F30133C3F30B03002B0CBF19
:101DFC0001230023DBB212E0FB68581E7B68596894
:101E0C000B469B000B4499000B44B0FBF3F30133DE
:101E1C00C3F30B03002B0CBF01230023DBB2002BFD
:101E2C0001D0012322E07B689B68002B0ED1FB685C
:101E3C00581E7B6859680B465B000B44B0FBF3F3F0
:101E4C000133C3F30B0343F400430FE0FB68581E4C
:101E5C007B6859680B469B000B4499000B44B0FB04
:101E6C00F3F30133C3F30B0343F44043796809687C
:101E7C001343CB617B681B681B6823F0C0017B6834
:101E8C00DA697B681B6A1A437B681B680A431A6011
:101E9C007B681B689B6823F4034323F0FF037A6879
:101EAC0011697A68D26811437A6812680B4393609F
:101EBC007B681B68DB6823F0FF017B685A697B68D1
:101ECC009B691A437B681B680A43DA607B681B6852
:101EDC001A687B681B6842F001021A607B6800225A
:101EEC001A647B68202283F83D207B6800221A63E9
:101EFC007B68002283F83E20002318461037BD462D
:101F0C0080BD00BFA08601007F841E00FF083D003D
:101F1C0083DE1B43D34D621080B588B002AFF860EE
:101F2C007A601A460B467B8113463B81FFF7A8FB70
:101F3C007861FB6893F83D30DBB2202B40F0E080F9
:101F4C007B690093192301227049F86800F092FA1A
:101F5C000346002B01D00223D3E0FB6893F83C30FE
:101F6C00012B01D10223CCE0FB68012283F83C2039
:101F7C00FB681B681B6803F00103012B07D0FB688F
:101F8C001B681A68FB681B6842F001021A60FB6848
:101F9C001B681A68FB681B6822F400621A60FB68F5
:101FAC00212283F83D20FB68102283F83E20FB6839
:101FBC0000221A64FB687A685A62FB683A895A856F
:101FCC00FB685B8D9AB2FB681A85FB68504ADA6233
:101FDC0079897B693A6AF86800F0CAF90346002BE4
:101FEC0001D001238DE000233B61FB681B685B691A
:101FFC003B61FB681B689B693B613B6966E07A69E6
:10200C00396AF86800F050FB0346002B0DD0FB68D2
:10201C001B6C042B07D1FB681B681A68FB681B68D8
:10202C0042F400721A6001236BE0FB685B6A1A7859
:10203C00FB681B681A61FB685B6A5A1CFB685A6276
:10204C00FB685B8D9BB2013B9AB2FB685A85FB68BF
:10205C001B8D013B9AB2FB681A85FB681B685B6998
:10206C0003F00403042B1BD1FB681B8D002B17D032
:10207C00FB685B6A1A78FB681B681A61FB685B6A11
:10208C005A1CFB685A62FB685B8D9BB2013B9AB28F
:10209C00FB685A85FB681B8D013B9AB2FB681A855D
:1020AC007A69396AF86800F047FB0346002B0DD0BB
:1020BC00FB681B6C042B07D1FB681B681A68FB6858
:1020CC001B6842F400721A6001231AE0FB681B8D36
:1020DC00002B94D1FB681B681A68FB681B6842F4E0
:1020EC0000721A60FB68202283F83D20FB680022F6
:1020FC0083F83E20FB68002283F83C20002300E09C
:10210C00022318461837BD4680BD00BF02001000E0
:10211C000000FFFF80B58AB002AFF8607A603B60C8
:10212C000B467B81FFF7ACFAF8610023BB61FB68BF
:10213C0093F83D30DBB2202B40F01181FB6900930A
:10214C00192301228849F86800F094F90346002B02
:10215C0001D0022304E1FB6893F83C30012B01D140
:10216C000223FDE0FB68012283F83C20FB681B681E
:10217C001B6803F00103012B07D0FB681B681A686E
:10218C00FB681B6842F001021A60FB681B681A6846
:10219C00FB681B6822F400621A60FB68242283F837
:1021AC003D20FB6800221A64FB68704ADA62FB6807
:1021BC001B681A68FB681B6842F480721A60FB6922
:1021CC0000933B6800224FF00111F86800F052F9BF
:1021DC000346002B0DD0FB681B681B6803F480734F
:1021EC00B3F5807F03D1FB684FF400721A640323AC
:1021FC00B6E07B89DBB21A46FB681B6802F0FE0274
:10220C001A61FFF73DFAF861FB681B685B6903F024
:10221C000203022B0CBF01230023DBB2FB75FB680E
:10222C001B685B6903F48063B3F5806F0CBF0123FB
:10223C000023DBB2BB7525E0FFF722FA0246FB69EF
:10224C00D31A3A689A4202D33B68002B03D1FB683D
:10225C00A02283F83D20FB681B685B6903F0020336
:10226C00022B0CBF01230023DBB2FB75FB681B6840
:10227C005B6903F48063B3F5806F0CBF012300230B
:10228C00DBB2BB75FB6893F83D30DBB2A02B05D0FD
:10229C00FB7D002B02D1BB7D002BCDD0FB68202217
:1022AC0083F83D20FB681B685B6903F00203022B7B
:1022BC0029D1FB681B681A68FB681B6842F4007222
:1022CC001A6000233B61FB681B685B693B61FB6820
:1022DC001B689B693B613B69FB69009319230122D5
:1022EC002149F86800F0C6F80346002B01D0012301
:1022FC0036E0FB68202283F83D20FB68002283F83F
:10230C003C2000232CE0FB681B681A68FB681B68E8
:10231C0042F400721A60FB681B686FF480625A61A9
:10232C00FB690093192301220F49F86800F0A2F809
:10233C000346002B01D0012312E0BB690133BB61C2
:10234C00BA697B689A42FFF432AFFB68202283F8AB
:10235C003D20FB68002283F83C20012300E002238F
:10236C0018462037BD4680BD020010000000FFFF5C
:10237C0080B588B002AFF8607A603B600B467B8119
:10238C00FB68DB6A7B617B69082B06D07B69012BC0
:10239C0003D07B6913F5803F08D1FB681B681A6872
:1023AC00FB681B6842F480721A600BE0FB681B6BC5
:1023BC00122B07D1FB681B681A68FB681B6842F478
:1023CC0080721A603B6800937B6800224FF0011109
:1023DC00F86800F04FF80346002B0DD0FB681B6823
:1023EC001B6803F48073B3F5807F03D1FB684FF453
:1023FC0000721A64032335E0FB681B69B3F5804F48
:10240C0008D17B89DBB21A46FB681B6802F0FE021E
:10241C001A611BE07B89DB11DBB203F00603DBB234
:10242C0063F00F03DAB2FB681B681A613B687A68C9
:10243C000E49F86800F098F80346002B01D00123F0
:10244C0010E07B89DAB2FB681B681A613B687A681A
:10245C000749F86800F088F80346002B01D00123E7
:10246C0000E0002318461837BD4680BD0800010067
:10247C000200010080B584B000AFF860B9603B6029
:10248C001346FB7148E03B68B3F1FF3F44D0FFF7C4
:10249C00F7F80246BB69D31A3A689A4202D33B68F2
:1024AC00002B39D1BB681B0CDBB2012B0DD1FB68A7
:1024BC001B685B69DA43BB6813409BB2002B0CBFF3
:1024CC0001230023DBB21A460CE0FB681B689B69F6
:1024DC00DA43BB6813409BB2002B0CBF01230023D3
:1024EC00DBB21A46FB799A4216D1FB6800221A63BA
:1024FC00FB68202283F83D20FB68002283F83E20F5
:10250C00FB681B6C43F02002FB681A64FB6800221A
:10251C0083F83C20012323E0BB681B0CDBB2012BAE
:10252C000DD1FB681B685B69DA43BB6813409BB237
:10253C00002B0CBF01230023DBB21A460CE0FB6816
:10254C001B689B69DA43BB6813409BB2002B0CBF22
:10255C0001230023DBB21A46FB799A4293D0002365
:10256C0018461037BD4680BD80B584B000AFF8600A
:10257C00B9607A603B6071E0FB681B685B6903F4CF
:10258C008063B3F5806F23D1FB681B681A68FB6806
:10259C001B6842F400721A60FB681B686FF480625F
:1025AC005A61FB6800221A63FB68202283F83D20E5
:1025BC00FB68002283F83E20FB681B6C43F004028E
:1025CC00FB681A64FB68002283F83C20012367E057
:1025DC007B68B3F1FF3F41D0FFF752F802463B68EE
:1025EC00D31A7A689A4202D37B68002B36D1BB6827
:1025FC001B0CDBB2012B0CD1FB681B685B69DA434B
:10260C00BB6813409BB2002B14BF01230023DBB229
:10261C000BE0FB681B689B69DA43BB6813409BB2F9
:10262C00002B14BF01230023DBB2002B16D0FB6858
:10263C0000221A63FB68202283F83D20FB680022ED
:10264C0083F83E20FB681B6C43F02002FB681A6485
:10265C00FB68002283F83C20012321E0BB681B0CA3
:10266C00DBB2012B0CD1FB681B685B69DA43BB68DE
:10267C0013409BB2002B14BF01230023DBB20BE0F1
:10268C00FB681B689B69DA43BB6813409BB2002B49
:10269C0014BF01230023DBB2002B7FF46DAF0023AA
:1026AC0018461037BD4680BD80B584B000AFF860C9
:1026BC00B9607A6034E0F86800F086F80346002BC5
:1026CC0001D0012334E0BB68B3F1FF3F28D0FEF703
:1026DC00D7FF02467B68D31ABA689A4202D3BB680A
:1026EC00002B1DD1FB681B685B6903F08003802BFA
:1026FC0016D0FB6800221A63FB68202283F83D2069
:10270C00FB68002283F83E20FB681B6C43F0200220
:10271C00FB681A64FB68002283F83C20012307E065
:10272C00FB681B685B6903F08003802BC3D100231B
:10273C0018461037BD4680BD80B584B000AFF86038
:10274C00B9607A6034E0F86800F03EF80346002B7C
:10275C0001D0012334E0BB68B3F1FF3F28D0FEF772
:10276C008FFF02467B68D31ABA689A4202D3BB68C1
:10277C00002B1DD1FB681B685B6903F00403042B61
:10278C0016D0FB6800221A63FB68202283F83D20D8
:10279C00FB68002283F83E20FB681B6C43F0200290
:1027AC00FB681A64FB68002283F83C20012307E0D5
:1027BC00FB681B685B6903F00403042BC3D1002383
:1027CC0018461037BD4680BD80B483B000AF78602A
:1027DC007B681B685B6903F48063B3F5806F1BD166
:1027EC007B681B686FF480625A617B6800221A63F5
:1027FC007B68202283F83D207B68002283F83E20F2
:10280C007B681B6C43F004027B681A647B680022B3
:10281C0083F83C20012300E0002318460C37BD460A
:10282C0080BC704780B586B000AF78607B68002BA9
:10283C0001D101236CE27B681B6803F00103002BC0
:10284C0000F08780924B5B6803F00C03042B0CD0D8
:10285C008F4B5B6803F00C03082B12D18C4B5B681D
:10286C0003F48033B3F5803F0BD1894B1B6803F421
:10287C000033002B6CD07B685B68002B68D1012384
:10288C0046E27B685B68B3F5803F06D1804B1B68E2
:10289C007F4A43F4803313602EE07B685B68002B27
:1028AC000CD17B4B1B687A4A23F480331360784B32
:1028BC001B68774A23F4802313601DE07B685B68F8
:1028CC00B3F5A02F0CD1724B1B68714A43F48023D3
:1028DC0013606F4B1B686E4A43F4803313600BE03C
:1028EC006B4B1B686A4A23F480331360684B1B687C
:1028FC00674A23F4802313607B685B68002B13D03A
:10290C00FEF7BEFE386108E0FEF7BAFE02463B69F0
:10291C00D31A642B01D90323FAE15D4B1B6803F432
:10292C000033002BF0D014E0FEF7AAFE386108E06B
:10293C00FEF7A6FE02463B69D31A642B01D903238A
:10294C00E6E1534B1B6803F40033002BF0D100E09D
:10295C0000BF7B681B6803F00203002B63D04C4B59
:10296C005B6803F00C03002B0BD0494B5B6803F046
:10297C000C03082B1CD1464B5B6803F48033002BF3
:10298C0016D1434B1B6803F00203002B05D07B6868
:10299C001B69012B01D00123BAE13D4B1B6823F0CD
:1029AC00F8027B685B69DB00394913430B603AE042
:1029BC007B681B69002B20D0364B01221A60FEF776
:1029CC005FFE386108E0FEF75BFE02463B69D31AF6
:1029DC00022B01D903239BE12D4B1B6803F002034F
:1029EC00002BF0D02A4B1B6823F0F8027B685B6944
:1029FC00DB00274913430B6015E0264B00221A60BD
:102A0C00FEF73EFE386108E0FEF73AFE02463B69EF
:102A1C00D31A022B01D903237AE11D4B1B6803F057
:102A2C000203002BF0D17B681B6803F00803002B1A
:102A3C003AD07B689B69002B19D0174B01221A6086
:102A4C00FEF71EFE386108E0FEF71AFE02463B69EF
:102A5C00D31A022B01D903235AE10D4B5B6A03F005
:102A6C000203002BF0D0012000F0B8FA1CE00A4B56
:102A7C0000221A60FEF704FE38610FE0FEF700FE3C
:102A8C0002463B69D31A022B08D9032340E100BF4D
:102A9C000010024000004242800442429E4B5B6A9E
:102AAC0003F00203002BE9D17B681B6803F00403DD
:102ABC00002B00F0A6800023FB75974BDB6903F01D
:102ACC008053002B0DD1944BDB69934A43F0805318
:102ADC00D361914BDB6903F08053BB60BB6801236E
:102AEC00FB758E4B1B6803F48073002B18D18B4B3A
:102AFC001B688A4A43F480731360FEF7C1FD38618A
:102B0C0008E0FEF7BDFD02463B69D31A642B01D9E0
:102B1C000323FDE0814B1B6803F48073002BF0D082
:102B2C007B68DB68012B06D17B4B1B6A7A4A43F02E
:102B3C00010313622DE07B68DB68002B0CD1764B14
:102B4C001B6A754A23F001031362734B1B6A724AAA
:102B5C0023F0040313621CE07B68DB68052B0CD1AB
:102B6C006D4B1B6A6C4A43F0040313626A4B1B6A7D
:102B7C00694A43F0010313620BE0674B1B6A664A18
:102B8C0023F001031362644B1B6A634A23F00403B2
:102B9C0013627B68DB68002B15D0FEF771FD386182
:102BAC000AE0FEF76DFD02463B69D31A41F288320A
:102BBC00934201D90323ABE0574B1B6A03F002038A
:102BCC00002BEED014E0FEF75BFD38610AE0FEF757
:102BDC0057FD02463B69D31A41F28832934201D920
:102BEC00032395E04C4B1B6A03F00203002BEED140
:102BFC00FB7D012B05D1484BDB69474A23F0805301
:102C0C00D3617B68DB69002B00F08180424B5B68F1
:102C1C0003F00C03082B61D07B68DB69022B46D1D7
:102C2C003F4B00221A60FEF72BFD386108E0FEF7DF
:102C3C0027FD02463B69D31A022B01D9032367E017
:102C4C00354B1B6803F00073002BF0D17B681B6ABB
:102C5C00B3F5803F08D1304B5B6823F400327B68BE
:102C6C009B682D4913434B602B4B5B6823F4741208
:102C7C007B68196A7B685B6A0B43274913434B607B
:102C8C00274B01221A60FEF7FBFC386108E0FEF7C7
:102C9C00F7FC02463B69D31A022B01D9032337E018
:102CAC001D4B1B6803F00073002BF0D02FE01C4B66
:102CBC0000221A60FEF7E4FC386108E0FEF7E0FC45
:102CCC0002463B69D31A022B01D9032320E0124B95
:102CDC001B6803F00073002BF0D118E07B68DB69F4
:102CEC00012B01D1012313E00B4B5B68FB60FB68EC
:102CFC0003F480327B681B6A9A4206D1FB6803F4AA
:102D0C0070127B685B6A9A4201D0012300E00023B9
:102D1C0018461837BD4680BD0010024000700040B8
:102D2C006000424280B584B000AF786039607B6847
:102D3C00002B01D10123D0E06A4B1B6803F0070381
:102D4C003A689A4210D9674B1B6823F00702654911
:102D5C003B6813430B60634B1B6803F007033A6833
:102D6C009A4201D00123B8E07B681B6803F0020390
:102D7C00002B20D07B681B6803F00403002B05D0CC
:102D8C00594B5B68584A43F4E06353607B681B689B
:102D9C0003F00803002B05D0534B5B68524A43F4F5
:102DAC0060535360504B5B6823F0F0027B689B6868
:102DBC004D4913434B607B681B6803F00103002BE8
:102DCC0040D07B685B68012B07D1474B1B6803F431
:102DDC000033002B15D101237FE07B685B68022B4D
:102DEC0007D1414B1B6803F00073002B09D1012361
:102DFC0073E03D4B1B6803F00203002B01D1012350
:102E0C006BE0394B5B6823F003027B685B683649E7
:102E1C0013434B60FEF734FCF8600AE0FEF730FC1D
:102E2C000246FB68D31A41F28832934201D903233C
:102E3C0053E02D4B5B6803F00C027B685B689B00D6
:102E4C009A42EBD1274B1B6803F007033A689A426E
:102E5C0010D2244B1B6823F0070222493B68134312
:102E6C000B60204B1B6803F007033A689A4201D0B1
:102E7C00012332E07B681B6803F00403002B08D0AD
:102E8C00194B5B6823F4E0627B68DB6816491343DB
:102E9C004B607B681B6803F00803002B09D0124BB6
:102EAC005B6823F460527B681B69DB000E4913439B
:102EBC004B6000F021F802460B4B5B681B0903F0DA
:102ECC000F030A49CB5C22FA03F3094A1360094B3E
:102EDC001B681846FEF792FB002318461037BD46B8
:102EEC0080BD00BF00200240001002402C420008B0
:102EFC00140000201800002080B487B000AF00231D
:102F0C00FB600023BB6000237B6100237B600023FC
:102F1C003B611E4B5B68FB60FB6803F00C03042BEE
:102F2C0002D0082B03D027E0194B3B6127E0FB684C
:102F3C009B0C03F00F03174AD35C7B60FB6803F414
:102F4C008033002B10D0114B5B685B0C03F001033A
:102F5C00114AD35CBB607B680D4A02FB03F2BB6871
:102F6C00B2FBF3F37B6104E07B680C4A02FB03F3D6
:102F7C007B617B693B6102E0054B3B6100BF3B69B8
:102F8C0018461C37BD4680BC704700BF001002407D
:102F9C0000127A00444200085442000800093D0027
:102FAC0080B400AF024B1B681846BD4680BC70470E
:102FBC001400002080B500AFFFF7F2FF0246054B6E
:102FCC005B681B0A03F007030349CB5C22FA03F38B
:102FDC00184680BD001002403C42000880B485B009
:102FEC0000AF78600A4B1B680A4AA2FB03235B0AFA
:102FFC007A6802FB03F3FB6000BFFB685A1EFA60A1
:10300C00002BF9D100BF00BF1437BD4680BC704700
:10301C0014000020D34D621080B582B000AF7860F0
:10302C007B68002B01D1012341E07B6893F83D3094
:10303C00DBB2002B06D17B68002283F83C20786839
:10304C00FEF70EFA7B68022283F83D207B681A6833
:10305C007B6804331946104600F05CFA7B68012249
:10306C0083F846207B68012283F83E207B6801228E
:10307C0083F83F207B68012283F840207B68012283
:10308C0083F841207B68012283F842207B6801226F
:10309C0083F843207B68012283F844207B6801225B
:1030AC0083F845207B68012283F83D2000231846D5
:1030BC000837BD4680BD000080B485B000AF786095
:1030CC007B6893F83D30DBB2012B01D001233AE051
:1030DC007B68022283F83D207B681B68DA687B687A
:1030EC001B6842F00102DA607B681B68184A934245
:1030FC000ED07B681B68B3F1804F09D07B681B68CE
:10310C00144A934204D07B681B68134A934211D132
:10311C007B681B689B6803F00703FB60FB68062B4E
:10312C0010D07B681B681A687B681B6842F0010230
:10313C001A6007E07B681B681A687B681B6842F0A2
:10314C0001021A60002318461437BD4680BC704734
:10315C00002C0140000400400008004080B584B001
:10316C0000AF78607B681B68DB68FB607B681B6862
:10317C001B69BB60BB6803F00203002B20D0FB680B
:10318C0003F00203002B1BD07B681B686FF002025C
:10319C001A617B6801221A777B681B689B6903F0B4
:1031AC000303002B03D0786800F098F905E07868E9
:1031BC0000F08BF9786800F09AF97B6800221A7796
:1031CC00BB6803F00403002B20D0FB6803F004035E
:1031DC00002B1BD07B681B686FF004021A617B68A4
:1031EC0002221A777B681B689B6903F44073002BDF
:1031FC0003D0786800F072F905E0786800F065F9A2
:10320C00786800F074F97B6800221A77BB6803F0C9
:10321C000803002B20D0FB6803F00803002B1BD005
:10322C007B681B686FF008021A617B6804221A77AE
:10323C007B681B68DB6903F00303002B03D0786801
:10324C0000F04CF905E0786800F03FF9786800F080
:10325C004EF97B6800221A77BB6803F01003002B31
:10326C0020D0FB6803F01003002B1BD07B681B687D
:10327C006FF010021A617B6808221A777B681B6852
:10328C00DB6903F44073002B03D0786800F026F957
:10329C0005E0786800F019F9786800F028F97B6887
:1032AC0000221A77BB6803F00103002B0CD0FB68DB
:1032BC0003F00103002B07D07B681B686FF0010241
:1032CC001A617868FDF72AFCBB6803F08003002BB9
:1032DC000CD0FB6803F08003002B07D07B681B68C5
:1032EC006FF080021A61786800F07FFABB6803F017
:1032FC004003002B0CD0FB6803F04003002B07D0DD
:10330C007B681B686FF040021A61786800F0F8F86F
:10331C00BB6803F02003002B0CD0FB6803F02003E8
:10332C00002B07D07B681B686FF020021A6178684D
:10333C0000F052FA00BF1037BD4680BD80B584B096
:10334C0000AF786039600023FB737B6893F83C30E6
:10335C00012B01D10223B4E07B68012283F83C20CD
:10336C007B68022283F83D207B681B689B68BB60EE
:10337C00BB6823F07703BB60BB6823F47F43BB605F
:10338C007B681B68BA689A603B681B68B3F5005F82
:10339C003ED0B3F5005F00F28780B3F5805F00F09C
:1033AC008680B3F5805F7FD8702B1AD0702B7BD8BA
:1033BC00602B50D0602B77D8502B3CD0502B73D82F
:1033CC00402B58D0402B6FD8302B64D0302B6BD87F
:1033DC00202B60D0202B67D8002B5CD0102B5AD020
:1033EC0062E07B6818683B6899683B685A683B6880
:1033FC00DB6800F074F97B681B689B68BB60BB687A
:10340C0043F07703BB607B681B68BA689A604FE037
:10341C007B6818683B6899683B685A683B68DB684E
:10342C0000F05DF97B681B689A687B681B6842F446
:10343C0080429A603CE07B6818683B6859683B683E
:10344C00DB681A4600F0D4F87B681B6850211846DC
:10345C0000F02BF92CE07B6818683B6859683B68D6
:10346C00DB681A4600F0F2F87B681B68602118468E
:10347C0000F01BF91CE07B6818683B6859683B68D6
:10348C00DB681A4600F0B4F87B681B6840211846CC
:10349C0000F00BF90CE07B681A683B681B68194656
:1034AC00104600F002F903E00123FB7300E000BFBB
:1034BC007B68012283F83D207B68002283F83C2046
:1034CC00FB7B18461037BD4680BD80B483B000AF7F
:1034DC00786000BF0C37BD4680BC704780B483B0A9
:1034EC0000AF786000BF0C37BD4680BC704780B41D
:1034FC0083B000AF786000BF0C37BD4680BC70470E
:10350C0080B483B000AF786000BF0C37BD4680BC80
:10351C007047000080B485B000AF786039607B687C
:10352C001B68FB607B682F4A93420BD07B68B3F11E
:10353C00804F07D07B682C4A934203D07B682B4A80
:10354C00934208D1FB6823F07003FB603B685B6817
:10355C00FA681343FB607B68224A93420BD07B686A
:10356C00B3F1804F07D07B681F4A934203D07B682E
:10357C001E4A934208D1FB6823F44073FB603B68FE
:10358C00DB68FA681343FB60FB6823F080023B683E
:10359C005B691343FB607B68FA681A603B689A6846
:1035AC007B68DA623B681A687B689A627B680D4AB2
:1035BC00934203D13B681A697B681A637B680122CA
:1035CC005A617B681B6903F00103002B05D07B68F3
:1035DC001B6923F001027B681A6100BF1437BD46DA
:1035EC0080BC7047002C01400004004000080040E3
:1035FC0080B487B000AFF860B9607A60FB681B6A72
:10360C007B61FB681B6A23F00102FB681A62FB6892
:10361C009B693B613B6923F0F0033B617B681B01B9
:10362C003A6913433B617B6923F00A037B617A6936
:10363C00BB6813437B61FB683A699A61FB687A69E2
:10364C001A6200BF1C37BD4680BC704780B487B07F
:10365C0000AFF860B9607A60FB681B6A7B61FB683D
:10366C001B6A23F01002FB681A62FB689B693B61C2
:10367C003B6923F470433B617B681B033A6913433A
:10368C003B617B6923F0A0037B61BB681B017A69FA
:10369C0013437B61FB683A699A61FB687A691A6229
:1036AC0000BF1C37BD4680BC704780B485B000AFEE
:1036BC00786039607B689B68FB60FB6823F0700363
:1036CC00FB603A68FB68134343F00703FB607B68BD
:1036DC00FA689A6000BF1437BD4680BC704780B44E
:1036EC0087B000AFF860B9607A603B60FB689B689C
:1036FC007B617B6923F47F437B613B681A027B68A7
:10370C001A43BB6813437A6913437B61FB687A697C
:10371C009A6000BF1C37BD4680BC704780B485B032
:10372C0000AF786039607B6893F83C30012B01D195
:10373C00022346E07B68012283F83C207B6802224E
:10374C0083F83D207B681B685B68FB607B681B68AB
:10375C009B68BB60FB6823F07003FB603B681B68D5
:10376C00FA681343FB607B681B68FA685A607B68D5
:10377C001B68164A93420ED07B681B68B3F1804FCE
:10378C0009D07B681B68124A934204D07B681B6883
:10379C00104A93420CD1BB6823F08003BB603B689A
:1037AC005B68BA681343BB607B681B68BA689A6035
:1037BC007B68012283F83D207B68002283F83C2043
:1037CC00002318461437BD4680BC7047002C0140BE
:1037DC00000400400008004080B483B000AF786063
:1037EC0000BF0C37BD4680BC704780B483B000AFBF
:1037FC00786000BF0C37BD4680BC7047014B186821
:10380C00704700BF2000002070B500260C4D0D4CF9
:10381C00641BA410A64209D100F05CFC00260A4DE2
:10382C000A4C641BA410A64205D170BD55F8043B8C
:10383C0098470136EEE755F8043B98470136F2E716
:10384C008C4200088C4200088C4200089042000810
:10385C0003460244934200D1704703F8011BF9E779
:10386C000EB46FF0004100B59CB01DAB02900690F9
:10387C00079104910848094953F8042B05910068F5
:10388C0002A9019300F068F80022029B1A701CB088
:10389C005DF804EB03B07047200000200802FFFF26
:1038AC002DE9F0478E6882469E420C4690461F4694
:1038BC0038D88A8912F4906F32D02568096901339F
:1038CC00A5EB010965694B4405EB450505EBD57581
:1038DC006D109D4238BF1D46530531D5294600F069
:1038EC0053FB064650B90C234FF0FF30CAF800309A
:1038FC00A38943F04003A381BDE8F0874A462169C0
:10390C0000F0CEFAA38923F4906343F08003A381E3
:10391C0026614E4426603E466561A5EB0905A5600F
:10392C00BE4200D93E4632464146206800F0C6FAF7
:10393C00A36822689B1B32440020A3602260DBE753
:10394C002A4600F07BFB06460028E1D1504621694F
:10395C0000F0CEFAC7E700002DE9F04F98468B89AE
:10396C0007461B060D4614469DB00ED50B6963B970
:10397C00402100F009FB2860286120B90C233B6032
:10398C004FF0FF30D1E040236B61002309932023DB
:10399C008DF8293030234FF00109CDF80C80DFF879
:1039AC00A4818DF82A3023469A4613F8012B0AB1CC
:1039BC00252AF9D1BAEB040B0BD05B4622462946DB
:1039CC003846FFF76DFF013000F0AA80099A5A447F
:1039DC0009929AF80030002B00F0A28000234FF0DF
:1039EC00FF32CDE905230AF1010A049307938DF800
:1039FC0053301A935446052214F8011B514800F019
:103A0C0041FA049AD8B9D00644BF20238DF853301C
:103A1C00110744BF2B238DF853309AF800302A2B12
:103A2C0015D0544600204FF00A0C079A214611F885
:103A3C00013B303B092B4ED9B0B1079214E0A0EBFF
:103A4C00080309FA03F31343A2460493D2E7039B3A
:103A5C00191D1B680391002BBBBF5B4242F0020295
:103A6C0007930793B8BF049223782E2B0CD163785D
:103A7C002A2B35D1039B02341A1D1B680392002B91
:103A8C00B8BF4FF0FF330593DFF8C8A003225046B0
:103A9C00217800F0F7F940B14023A0EB0A0003FABB
:103AAC0000F0049B01340343049314F8011B062219
:103ABC0025488DF8281000F0E5F9002838D0234B64
:103ACC001BBB039B073323F0070308330393099BAA
:103ADC003344099367E70C4601200CFB0232A5E73F
:103AEC0000234FF00A0C194601340593204610F8B8
:103AFC00012B303A092A03D9002BC5D00591C3E715
:103B0C00044601230CFB0121F0E703AB00932A468A
:103B1C0038460F4B04A9AFF30080421C0646D6D1A1
:103B2C00AB895B063FF52CAF09981DB0BDE8F08F53
:103B3C0003AB00932A463846054B04A900F07CF8E9
:103B4C00EBE700BF5642000860420008000000008E
:103B5C00AD3800085C4200082DE9F047164699463E
:103B6C008A680B6907469342B8BF1346336091F8D5
:103B7C0043200C46DDF820800AB101333360236802
:103B8C00990642BF336802333360256815F0060589
:103B9C0006D104F1190AE36832689B1AAB4228DC9F
:103BAC0094F84320131E226818BF012392062DD4CB
:103BBC004946384604F14302C047013020D02368FF
:103BCC00E56803F00603042B18BF002532684FF09C
:103BDC000006A36808BFAD1A226908BF25EAE5757F
:103BEC009342C4BF9B1AED181A34B5421AD1002067
:103BFC0008E00123524649463846C047013003D1FC
:103C0C004FF0FF30BDE8F0870135C4E73020E118F4
:103C1C0081F843005A1C94F845102244023382F870
:103C2C004310C5E70123224649463846C0470130B8
:103C3C00E6D00136D9E700002DE9FF470C46277E78
:103C4C009146782F80469A460C9904F1430207D886
:103C5C00622F0AD8002F00F0D980582F00F0A480D2
:103C6C0004F1420684F842703AE0A7F16303152B85
:103C7C00F6D801A050F823F0DD3C0008F13C000818
:103C8C006D3C00086D3C00086D3C00086D3C000864
:103C9C00F13C00086D3C00086D3C00086D3C0008D0
:103CAC006D3C0008FF3D0008213D0008E13D000887
:103CBC006D3C00086D3C0008213E00086D3C00087E
:103CCC00213D00086D3C00086D3C0008E93D0008F2
:103CDC000B6804F142061A1D1B680A6084F8423016
:103CEC000123A4E0256808682E0600F104030AD518
:103CFC0005680B60002D03DA2D236D4284F84330E8
:103D0C000A235E4819E015F0400F05680B6018BFD8
:103D1C002DB2EFE70B682568181D0860280601D541
:103D2C001D6802E06906FBD51D886F2F0CBF0823A8
:103D3C000A235248002184F843106668002EA8BF5D
:103D4C002168A660A4BF21F0040121600DB9002EEA
:103D5C004DD01646B5FBF3F103FB1157C75D06F8C2
:103D6C00017D2F46BB420D46F4D9082B0BD123689D
:103D7C00DF0708D5236961689942DEBF302306F856
:103D8C00013C06F1FF36921B22614B462146404610
:103D9C00CDF800A003AAFFF7DFFE01304CD14FF0A5
:103DAC00FF3004B0BDE8F087344884F845700E68E5
:103DBC00236856F8045B1F060E6014D5D90744BF60
:103DCC0043F0200323601DB9236823F020032360F4
:103DDC001023AFE7236843F020032360782328489F
:103DEC0084F84530E3E75E0648BFADB2E6E7164619
:103DFC00BBE70B6826681D1D60690D6035061B68E6
:103E0C0001D5186002E07106FBD518800023164618
:103E1C002361BAE70B681A1D0A601E680021304640
:103E2C00626800F02FF808B1801B60606368236142
:103E3C00002384F84330A8E73246494640462369BC
:103E4C00D0470130ABD023689B0713D4E068039BA9
:103E5C009842B8BF1846A4E701233246494640466B
:103E6C00D04701309BD00135E36803995B1AAB4214
:103E7C00F2DCEBE7002504F11906F5E767420008D0
:103E8C0078420008034610B5C9B202449342184662
:103E9C0001D1002003E0047801338C42F6D110BD2F
:103EAC000A44914200F1FF3300D1704710B511F86C
:103EBC00014B914203F8014FF9D110BD884210B566
:103ECC0001EB020402D98442234607D8431EA142C7
:103EDC0008D011F8012B03F8012FF8E70146024432
:103EEC008A4200D110BD13F8014D02F8014DF7E7DD
:103EFC0038B50546002943D051F8043C0C1F002B63
:103F0C00B8BFE41800F0D0F81E4A1368104633B955
:103F1C00636014602846BDE8384000F0CBB8A3427B
:103F2C000AD921686218934201BF1A685B6852185B
:103F3C00226063600460EDE71A465B680BB1A34234
:103F4C00FAD911685018A0420BD1206801445018BE
:103F5C0083421160DED118685B68014411605360C4
:103F6C00D8E702D90C232B60D4E7206821188B42A8
:103F7C0001BF19685B680918216063605460C9E768
:103F8C0038BD00BF28010020F8B5CD1C25F0030575
:103F9C0008350C2D38BF0C25002D064601DBA94237
:103FAC0003D90C2333600020F8BD00F07DF82149C3
:103FBC000A6814469CB9204F3B6823B92146304609
:103FCC0000F062F838602946304600F05DF8431C7A
:103FDC0023D10C233046336000F06CF8E3E7236800
:103FEC005B1B17D40B2B03D923601C44256004E006
:103FFC006368A2420CBF0B605360304600F05AF865
:10400C0004F10B00231D20F00700C21ACCD01B1AA0
:10401C00A350C9E722466468CCE7C41C24F003040F
:10402C00A042E3D0211A304600F02EF80130DDD149
:10403C00CFE700BF280100202C010020F8B507466F
:10404C0014460E4621B91146BDE8F840FFF79CBF57
:10405C0022B9FFF74DFF25462846F8BD00F030F891
:10406C00A0420FD221463846FFF78EFF05460028A6
:10407C00F2D031462246FFF713FF31463846FFF7A0
:10408C0037FFE9E73546E7E738B50023054D044629
:10409C0008462B60FDF73AFA431C02D12B6803B19A
:1040AC00236038BDD0010020014800F011B800BFDA
:1040BC00D8010020014800F00CB800BFD801002046
:1040CC0051F8043C181F002BBCBF0B58C01870478C
:1040DC0070477047F8B500BFF8BC08BC9E467047E7
:0C40EC00F8B500BFF8BC08BC9E46704749
:1040F8004C434420466F756E6421000030782530AB
:1041080032580000446F6F72204C6F636B20526509
:10411800616479004C4344204E6F7420466F756E7D
:1041280064210000436865636B2049324320776946
:1041380072650000504153533A200000000000000F
:10414800456E7465722070617373776F72640000D6
:104158004F6C6420706173733A0000004368616EAD
:1041680067652070617373776F726400446F6F7254
:1041780020756E6C6F636B6564000000506173732B
:10418800776F7264204F4B00546F6F206D616E79AA
:1041980020747269657300004C4F434B45442100FD
:1041A80054727920616761696E00000057726F6E02
:1041B800672070617373776F726400004E657720B3
:1041C80070617373776F72643A00000043616E63C5
:1041D800656C206368616E676500000057726F6EDA
:1041E80067206F6C642070617373000041676169B8
:1041F8006E206E6577207061737300004368616E8E
:104208006765204F4B0000005061737320756E6323
:1042180068616E67656400004E6F74206D61746339
:10422800686564000000000000000000010203044B
:104238000607080900000000010203040203040540
:10424800060708090A0B0C0D0E0F10100102232D8A
:10425800302B2000686C4C00656667454647003087
:1042680031323334353637383941424344454600D4
:1042780030313233343536373839616263646566D4
:044288000000000032
:04428C0031010008F4
:044290000D01000814
:10429400000801400100010001000127010203049C
:1042A40060EA000000127A00100000000100000023
:1042B40024000020000000000000000000000000B6
:1042C40000000000000000000000000000000000EA
:1042D40000000000000000000000000000000000DA
:1042E40000000000000000000000000000000000CA
:1042F40000000000000000000000000000000000BA
:1043040000000000000000000000000000000000A9
:0443140000000000A5
:040000050800159149
:00000001FF
