:020000040800F2
:1000000000500020650A0008F5090008FB090008F7
:10001000010A0008070A00080D0A00080000000095
:10002000000000000000000000000000130A0008AB
:100030001F0A0008000000002B0A0008370A000809
:10004000AD0A0008AD0A0008AD0A0008AD0A0008B4
:10005000AD0A0008AD0A0008AD0A0008AD0A0008A4
:10006000AD0A0008AD0A0008AD0A0008AD0A000894
:10007000AD0A0008AD0A0008AD0A0008AD0A000884
:10008000AD0A0008AD0A0008AD0A0008AD0A000874
:10009000AD0A0008AD0A0008AD0A0008AD0A000864
:1000A000AD0A0008AD0A0008AD0A0008AD0A000854
:1000B000450A0008AD0A0008AD0A0008AD0A0008AC
:1000C000AD0A0008AD0A0008AD0A0008AD0A000834
:1000D000AD0A0008AD0A0008AD0A0008AD0A000824
:1000E000AD0A0008AD0A0008AD0A000800000000D3
:1000F0000000000000000000000000000000000000
:0C01000000000000000000005FF808F1A3
:10010C0010B5054C237833B9044B13B10448AFF345
:10011C0000800123237010BD1C0000200000000093
:10012C002C2C000808B5034B1BB103490348AFF353
:10013C00008008BD00000000200000202C2C0008CE
:10014C0080B582B000AF0346FB71384AFB7913705F
:10015C00374B08221A70374B00221A70334B1B781E
:10016C00012B07D9334B1B7843F00803DAB2314B20
:10017C001A7006E02F4B1B7843F00403DAB22D4BB8
:10018C001A7000F091F9322000F0EEFC284B1B782D
:10019C00184600F04FF94FF47A7000F0E5FC30206F
:1001AC0000F037F941F2941000F0A6F9302000F07D
:1001BC0030F941F2941000F09FF9302000F029F949
:1001CC0041F2941000F098F9202000F022F96420FC
:1001DC0000F092F9174B1B7843F02003DBB2184662
:1001EC0000F0DAF8144B04221A7000F075F800F0E5
:1001FC002BF8124B02221A70104B1B7843F004039D
:10020C00DBB2184600F0C8F841F2941000F074F913
:10021C000B49002000F076F80A49012000F072F832
:10022C0000F01DF800BF0837BD4680BD4A00002015
:10023C004C000020480000204B000020490000200A
:10024C00000000200800002080B500AF012000F065
:10025C00A3F84FF4FA6000F04FF900BF80BD80B5F1
:10026C0000AF022000F098F84FF4FA6000F044F967
:10027C0000BF80BD90B587B000AF03460A46FB7146
:10028C001346BB71124B07F108040FCB84E80F0027
:10029C00104B1B78BA799A4203D30E4B1B78013B57
:1002AC00BB71BB799B0007F11802134453F8103C47
:1002BC00DAB2FB791344DBB25BB263F07F035BB25F
:1002CC00DBB2184600F068F800BF1C37BD4690BD85
:1002DC00442C00084A00002080B500AF084B1B7866
:1002EC0043F00403DAB2064B1A70054B1B7843F04B
:1002FC000803DBB2184600F04FF800BF80BD00BF0A
:10030C004B00002080B584B000AF03463960FB7110
:10031C00FB7903F00703FB71FB79DB005BB243F065
:10032C0040035BB2DBB2184600F036F80023FB60EA
:10033C0009E0FB683A6813441B78184600F03AF859
:10034C00FB680133FB60FB68072BF2DD00BF00BFCD
:10035C001037BD4680BD80B582B000AF786006E036
:10036C007B685A1C7A601B78184600F023F87B686F
:10037C001B78002BF4D100BF00BF0837BD4680BDF1
:10038C0080B500AF034B08221A70002000F052F821
:10039C0000BF80BD4C00002080B582B000AF03468A
:1003AC00FB71FB790021184600F012F800BF0837EA
:1003BC00BD4680BD80B582B000AF0346FB71FB79B2
:1003CC000121184600F004F800BF0837BD4680BD77
:1003DC0080B584B000AF03460A46FB711346BB716F
:1003EC00FB7923F00F03FB73FB791B01BB73FA7BC7
:1003FC00BB791343DBB2184600F00BF8BA7BBB7920
:10040C001343DBB2184600F004F800BF1037BD46AA
:10041C0080BD80B582B000AF0346FB71FB791846F6
:10042C0000F008F8FB79184600F020F800BF0837F8
:10043C00BD4680BD80B586B002AF0346FB71094B4B
:10044C001A78FB791343DBB2FB7307F10F020A2313
:10045C00009301234E21044800F098FF00BF103791
:10046C00BD4680BD4C0000205000002080B582B0FD
:10047C0000AF0346FB71FB7943F00403DBB2184673
:10048C00FFF7D8FF142000F037F8FB7923F00403B2
:10049C00DBB21846FFF7CEFF142000F02DF800BF9A
:1004AC000837BD4680BD000080B400AF104BDB6840
:1004BC000F4A23F08073D3600D4BDB680C4A43F07A
:1004CC008073D3600B4B1B680A4A23F00103136043
:1004DC00084B1B68074A43F001031360054B0022CD
:1004EC005A6000BF00BF00BF00BFBD4680BC704754
:1004FC00F0ED00E0001000E080B487B000AF786051
:10050C000D4B1B680D4AA2FB03239A0C7B6802FB64
:10051C0003F37B610A4B5B683B61094B5A683B698F
:10052C00D31AFB60FB687A699A42F6D800BF00BF09
:10053C001C37BD4680BC70471000002083DE1B4377
:10054C00001000E080B582B000AF00F0ABFA00F014
:10055C0043F800F0FFF800F083F800F0AFF8002249
:10056C000421194800F0B6FD0220FFF7E9FDFFF762
:10057C006BFEFFF705FF00210020FFF77BFE134801
:10058C00FFF7E9FE01210020FFF774FE1048FFF78A
:10059C00E2FE642302224E210E4800F0F5FF0346D2
:1005AC00FB71FB79002B05D101220421064800F0D8
:1005BC0091FD04E000220421034800F08BFD4FF470
:1005CC00967000F0D1FAE4E7000C0140542C0008BE
:1005DC00602C00085000002080B590B000AF07F1EF
:1005EC00180328220021184602F012FB3B1D0022A2
:1005FC001A605A609A60DA601A610123BB614FF489
:10060C008033FB6100233B620123BB6202237B63CB
:10061C004FF48033BB630023FB6307F118031846C8
:10062C0001F03AFB0346002B01D000F015F90F2323
:10063C007B600223BB608023FB604FF480633B61D3
:10064C0000237B613B1D0021184601F0A5FD0346EC
:10065C00002B01D000F000F900BF4037BD4680BD33
:10066C0080B500AF124B134A1A60114B124A5A60F4
:10067C000F4B00229A600E4B0022DA600C4B4FF4A9
:10068C0080421A610A4B00225A61094B00229A617E
:10069C00074B0022DA61064B00221A62044800F074
:1006AC0031FD0346002B01D000F0D6F800BF80BD11
:1006BC005000002000540040A086010080B586B098
:1006CC0000AF07F1080300221A605A609A60DA60E2
:1006DC003B4600221A605A601D4B4FF080421A6054
:1006EC001B4B41F63F725A60194B00229A60184B13
:1006FC000922DA60164B00221A61154B00229A610E
:10070C00134801F0C3FE0346002B01D000F0A4F8FF
:10071C004FF48053BB6007F1080319460C4801F0F5
:10072C00F4FF0346002B01D000F096F800233B6049
:10073C0000237B603B461946054802F0D5F9034679
:10074C00002B01D000F088F800BF1837BD4680BDE3
:10075C00A400002080B588B000AF07F11003002280
:10076C001A605A609A60DA60334B9B69324A43F0E4
:10077C0020039361304B9B6903F02003FB60FB6803
:10078C002D4B9B692C4A43F0040393612A4B9B69C4
:10079C0003F00403BB60BB68274B9B69264A43F0FC
:1007AC0008039361244B9B6903F008037B607B680F
:1007BC0000227821214800F08DFC002204212048E1
:1007CC0000F088FC07233B6100237B610023BB61A5
:1007DC0007F110031946194800F0F8FA78233B6129
:1007EC0001237B610023BB610223FB6107F1100332
:1007FC001946124800F0EAFA40F23B133B61002321
:10080C007B610023BB6107F1100319460C4800F013
:10081C00DDFA04233B6101237B610023BB610223CE
:10082C00FB6107F110031946054800F0CFFA00BF31
:10083C002037BD4680BD00BF0010024000080140BB
:10084C00000C014080B582B000AF786000F00AF86F
:10085C0000BF0837BD4680BD80B400AF72B600BF84
:10086C00FEE7000080B400AF114B1B68002B0BDDC2
:10087C000F4B1B68013B0E4A13600D4B1B68002B82
:10088C0002DC0C4B01221A600B4B1B68002B0BDD9E
:10089C00094B1B68013B084A1360074B1B68002B74
:1008AC0002DC064B01221A6000BFBD4680BC7047BB
:1008BC00380000203C0000204000002044000020B4
:1008CC0080B485B000AF154B9B69144A43F001030B
:1008DC009361124B9B6903F00103BB60BB680F4B28
:1008EC00DB690E4A43F08053D3610C4BDB6903F098
:1008FC0080537B607B680A4B5B68FB60FB6823F072
:10090C00E063FB60FB6843F00073FB60044AFB6828
:10091C00536000BF1437BD4680BC704700100240C6
:10092C000000014080B588B000AF786007F110037B
:10093C0000221A605A609A60DA607B681B68154A5C
:10094C00934223D1144B9B69134A43F008039361E0
:10095C00114B9B6903F00803FB60FB68C0233B61F0
:10096C0012237B610323FB6107F1100319460B482B
:10097C0000F02CFA084BDB69074A43F40013D361EF
:10098C00054BDB6903F40013BB60BB6800BF203769
:10099C00BD4680BD0054004000100240000C0140D8
:1009AC0080B584B000AF78607B681B68B3F1804F72
:1009BC0013D10C4BDB690B4A43F00103D361094B98
:1009CC00DB6903F00103FB60FB68002200211C20A3
:1009DC0000F0C5F91C2000F0DEF900BF1037BD4651
:1009EC0080BD00BF0010024080B400AFFEE780B4B1
:1009FC0000AFFEE780B400AFFEE780B400AFFEE7C7
:100A0C0080B400AFFEE780B400AF00BFBD4680BC31
:100A1C00704780B400AF00BFBD4680BC704780B447
:100A2C0000AF00BFBD4680BC704780B500AF00F082
:100A3C007FF800BF80BD000080B500AF024801F018
:100A4C0074FD00BF80BD00BFA400002080B400AFC7
:100A5C0000BFBD4680BC7047FFF7F8FF0B480C4940
:100A6C000C4A002302E0D458C4500433C4188C42FE
:100A7C00F9D3094A094C002301E013600432A24265
:100A8C00FBD302F0A1F8FFF75DFD704700000020DA
:100A9C001C000020A42C00081C000020F0000020EA
:100AAC00FEE7000080B500AF084B1B68074A43F017
:100ABC0010031360032000F047F90F2000F008F832
:100ACC00FFF7FEFE0023184680BD00BF0020024049
:100ADC0080B582B000AF7860124B1A68124B1B784D
:100AEC0019464FF47A73B3FBF1F3B2FBF3F31846E8
:100AFC0000F05FF90346002B01D001230EE07B6868
:100B0C000F2B0AD8002279684FF0FF3000F027F93C
:100B1C00064A7B681360002300E00123184608375F
:100B2C00BD4680BD100000201800002014000020DD
:100B3C0080B400AF054B1B781A46054B1B68134459
:100B4C00034A136000BFBD4680BC704718000020EC
:100B5C00EC00002080B400AF024B1B681846BD4669
:100B6C0080BC7047EC00002080B584B000AF78608A
:100B7C00FFF7F0FFB8607B68FB60FB68B3F1FF3FE9
:100B8C0005D00A4B1B781A46FB681344FB6000BF68
:100B9C00FFF7E0FF0246BB68D31AFA689A42F7D80F
:100BAC0000BF00BF1037BD4680BD00BF180000203D
:100BBC0080B485B000AF78607B6803F00703FB60FE
:100BCC000C4BDB68BB60BA684FF6FF031340BB608D
:100BDC00FB681A02BB68134343F0BF6343F4003352
:100BEC00BB60044ABB68D36000BF1437BD4680BCF1
:100BFC00704700BF00ED00E080B400AF044BDB6831
:100C0C001B0A03F007031846BD4680BC704700BFA3
:100C1C0000ED00E080B483B000AF0346FB7197F9A0
:100C2C000730002B0BDBFB7903F01F02064997F909
:100C3C0007305B09012000FA02F241F8232000BFC3
:100C4C000C37BD4680BC704700E100E080B483B037
:100C5C0000AF03463960FB7197F90730002B0ADBB4
:100C6C003B68DAB20C4997F907301201D2B20B4447
:100C7C0083F800230AE03B68DAB20849FB7903F0F9
:100C8C000F03043B1201D2B20B441A7600BF0C378F
:100C9C00BD4680BC704700BF00E100E000ED00E005
:100CAC0080B489B000AFF860B9607A60FB6803F07B
:100CBC000703FB61FB69C3F10703042B28BF042363
:100CCC00BB61FB690433062B02D9FB69033B00E0D3
:100CDC0000237B614FF0FF32BB6902FA03F3DA4366
:100CEC00BB681A407B699A404FF0FF317B6901FA6F
:100CFC0003F3D9437B680B40134318462437BD4696
:100D0C0080BC704780B582B000AF78607B68013BD7
:100D1C00B3F1807F01D301230FE00A4A7B68013BCA
:100D2C0053600F214FF0FF30FFF790FF054B00226F
:100D3C009A60044B07221A60002318460837BD46F8
:100D4C0080BD00BF10E000E080B582B000AF7860DD
:100D5C007868FFF72DFF00BF0837BD4680BD80B512
:100D6C0086B000AF0346B9607A60FB7300237B61E9
:100D7C00FFF742FF78617A68B9687869FFF790FFEE
:100D8C00024697F90F3011461846FFF75FFF00BF78
:100D9C001837BD4680BD80B582B000AF0346FB71ED
:100DAC0097F907301846FFF735FF00BF0837BD46E7
:100DBC0080BD80B582B000AF78607868FFF7A2FF85
:100DCC00034618460837BD4680BD000080B48BB082
:100DDC0000AF7860396000237B6200233B6269E1DD
:100DEC0001227B6A02FA03F3FB613B681B68FA6918
:100DFC001340BB61BA69FB699A4240F058813B6869
:100E0C005B689A4A93425ED0984A934275D8984A46
:100E1C00934258D0964A93426FD8964A934252D0F6
:100E2C00944A934269D8944A93424CD0924A934242
:100E3C0063D8924A934246D0904A93425DD8122B83
:100E4C002AD8122B59D801A252F823F0D30E00083D
:100E5C00AD0E0008BF0E0008010F0008070F0008B8
:100E6C00070F0008070F0008070F0008070F0008FE
:100E7C00070F0008070F0008070F0008070F0008EE
:100E8C00070F0008070F0008070F0008070F0008DE
:100E9C00B50E0008C90E0008794A934213D02CE015
:100EAC003B68DB683B6229E03B68DB6804333B62F0
:100EBC0024E03B68DB6808333B621FE03B68DB687F
:100ECC000C333B621AE03B689B68002B02D1042375
:100EDC003B6213E03B689B68012B05D108233B6206
:100EEC007B68FA691A6109E008233B627B68FA693E
:100EFC005A6103E000233B6200E000BFBB69FF2B9B
:100F0C0001D87B6801E07B6804337B61BB69FF2BF4
:100F1C0002D87B6A9B0002E07B6A083B9B003B612A
:100F2C007B691A680F213B6901FA03F3DB431A4012
:100F3C00396A3B6901FA03F31A437B691A603B680F
:100F4C005B6803F08053002B00F0B1804D4B9B6924
:100F5C004C4A43F0010393614A4B9B6903F0010334
:100F6C00BB60BB68484A7B6A9B08023352F823304B
:100F7C00FB607B6A03F003039B000F2202FA03F36E
:100F8C00DB43FA681340FB607B68404A934213D002
:100F9C007B683F4A93420DD07B683E4A934207D010
:100FAC007B683D4A934201D1032306E0042304E00D
:100FBC00022302E0012300E000237A6A02F003021C
:100FCC0092009340FA681343FB602F497B6A9B089D
:100FDC000233FA6841F823203B685B6803F4801302
:100FEC00002B06D02D4B9A682C49BB6913438B60A0
:100FFC0006E02A4B9A68BB69DB43284913408B6097
:10100C003B685B6803F40013002B06D0234BDA68B3
:10101C002249BB691343CB6006E0204BDA68BB69FD
:10102C00DB431E491340CB603B685B6803F4003321
:10103C00002B06D0194B5A681849BB6913434B60F7
:10104C0006E0164B5A68BB69DB43144913404B60EE
:10105C003B685B6803F48033002B21D00F4B1A687C
:10106C000E49BB6913430B6021E000BF0000321036
:10107C00000031100000221000002110000012109E
:10108C000000111000100240000001400008014057
:10109C00000C01400010014000140140000401400C
:1010AC000B4B1A68BB69DB43094913400B607B6A25
:1010BC0001337B623B681A687B6A22FA03F3002BCC
:1010CC007FF48EAE00BF00BF2C37BD4680BC70478E
:1010DC000004014080B483B000AF78600B467B8085
:1010EC0013467B707B78002B03D07A887B681A615F
:1010FC0003E07B881A047B681A6100BF0C37BD467D
:10110C0080BC704780B584B000AF78607B68002BE2
:10111C0001D101232BE17B6893F83D30DBB2002B2E
:10112C0006D17B68002283F83C207868FFF7FAFB35
:10113C007B68242283F83D207B681B681A687B68D7
:10114C001B6822F001021A607B681B681A687B68B6
:10115C001B6842F400421A607B681B681A687B6843
:10116C001B6822F400421A6001F05EF9F8607B689B
:10117C005B68814A934207D8FB68804A934294BFCC
:10118C0001230023DBB206E0FB687D4A934294BF47
:10119C0001230023DBB2002B01D00123E7E0FB6825
:1011AC00784AA2FB03239B0CBB607B681B685B68C3
:1011BC0023F03F017B681B68BA680A435A607B685E
:1011CC001B681B6A23F03F017B685B686A4A934289
:1011DC0002D8BB68013309E0BB684FF4967202FB7E
:1011EC0003F3694AA2FB03239B0901337A68126853
:1011FC000B4313627B681B68DB6923F44F4222F0BC
:10120C00FF027B685B685C498B4219D8FB68591EEE
:10121C007B685B685B00B1FBF3F3591C40F6FC7315
:10122C000B40002B0AD0FB68591E7B685B685B0087
:10123C00B1FBF3F30133C3F30B0351E004234FE091
:10124C007B689B68002B11D1FB68581E7B68596822
:10125C000B465B000B44B0FBF3F30133C3F30B03FE
:10126C00002B0CBF01230023DBB212E0FB68581EDD
:10127C007B6859680B469B000B4499000B44B0FBF0
:10128C00F3F30133C3F30B03002B0CBF0123002337
:10129C00DBB2002B01D0012322E07B689B68002B82
:1012AC000ED1FB68581E7B6859680B465B000B44DB
:1012BC00B0FBF3F30133C3F30B0343F400430FE030
:1012CC00FB68581E7B6859680B469B000B449900C1
:1012DC000B44B0FBF3F30133C3F30B0343F4404370
:1012EC00796809681343CB617B681B681B6823F022
:1012FC00C0017B68DA697B681B6A1A437B681B68D0
:10130C000A431A607B681B689B6823F4034323F031
:10131C00FF037A6811697A68D26811437A68126897
:10132C000B4393607B681B68DB6823F0FF017B68D1
:10133C005A697B689B691A437B681B680A43DA60AD
:10134C007B681B681A687B681B6842F001021A6094
:10135C007B6800221A647B68202283F83D207B681E
:10136C0000221A637B68002283F83E200023184673
:10137C001037BD4680BD00BFA08601007F841E00D3
:10138C00FF083D0083DE1B43D34D621080B588B04F
:10139C0002AFF8607A601A460B467B8113463B819C
:1013AC00FFF7D8FB7861FB6893F83D30DBB2202B5C
:1013BC0040F0E0807B690093192301227049F868A2
:1013CC0000F092FA0346002B01D00223D3E0FB6815
:1013DC0093F83C30012B01D10223CCE0FB680122B5
:1013EC0083F83C20FB681B681B6803F00103012B8E
:1013FC0007D0FB681B681A68FB681B6842F0010287
:10140C001A60FB681B681A68FB681B6822F4006290
:10141C001A60FB68212283F83D20FB68102283F8B8
:10142C003E20FB6800221A64FB687A685A62FB68EB
:10143C003A895A85FB685B8D9AB2FB681A85FB6802
:10144C00504ADA6279897B693A6AF86800F0CAF91D
:10145C000346002B01D001238DE000233B61FB6888
:10146C001B685B693B61FB681B689B693B613B6963
:10147C0066E07A69396AF86800F050FB0346002B85
:10148C000DD0FB681B6C042B07D1FB681B681A681A
:10149C00FB681B6842F400721A6001236BE0FB6866
:1014AC005B6A1A78FB681B681A61FB685B6A5A1CDA
:1014BC00FB685A62FB685B8D9BB2013B9AB2FB687E
:1014CC005A85FB681B8D013B9AB2FB681A85FB6839
:1014DC001B685B6903F00403042B1BD1FB681B8D99
:1014EC00002B17D0FB685B6A1A78FB681B681A61C3
:1014FC00FB685B6A5A1CFB685A62FB685B8D9BB28B
:10150C00013B9AB2FB685A85FB681B8D013B9AB272
:10151C00FB681A857A69396AF86800F047FB03465C
:10152C00002B0DD0FB681B6C042B07D1FB681B68D0
:10153C001A68FB681B6842F400721A6001231AE0F7
:10154C00FB681B8D002B94D1FB681B681A68FB6829
:10155C001B6842F400721A60FB68202283F83D205D
:10156C00FB68002283F83E20FB68002283F83C20B5
:10157C00002300E0022318461837BD4680BD00BF8B
:10158C00020010000000FFFF80B58AB002AFF860C7
:10159C007A603B600B467B81FFF7DCFAF861002335
:1015AC00BB61FB6893F83D30DBB2202B40F011811E
:1015BC00FB690093192301228849F86800F094F91B
:1015CC000346002B01D0022304E1FB6893F83C3066
:1015DC00012B01D10223FDE0FB68012283F83C20A2
:1015EC00FB681B681B6803F00103012B07D0FB6829
:1015FC001B681A68FB681B6842F001021A60FB68E2
:10160C001B681A68FB681B6822F400621A60FB688E
:10161C00242283F83D20FB6800221A64FB68704A80
:10162C00DA62FB681B681A68FB681B6842F48072FC
:10163C001A60FB6900933B6800224FF00111F868B7
:10164C0000F052F90346002B0DD0FB681B681B6899
:10165C0003F48073B3F5807F03D1FB684FF4007201
:10166C001A640323B6E07B89DBB21A46FB681B685D
:10167C0002F0FE021A61FFF76DFAF861FB681B6855
:10168C005B6903F00203022B0CBF01230023DBB2C6
:10169C00FB75FB681B685B6903F48063B3F5806FB3
:1016AC000CBF01230023DBB2BB7525E0FFF752FA18
:1016BC000246FB69D31A3A689A4202D33B68002B64
:1016CC0003D1FB68A02283F83D20FB681B685B6993
:1016DC0003F00203022B0CBF01230023DBB2FB75CA
:1016EC00FB681B685B6903F48063B3F5806F0CBF08
:1016FC0001230023DBB2BB75FB6893F83D30DBB2F2
:10170C00A02B05D0FB7D002B02D1BB7D002BCDD0B7
:10171C00FB68202283F83D20FB681B685B6903F0A3
:10172C000203022B29D1FB681B681A68FB681B6833
:10173C0042F400721A6000233B61FB681B685B6912
:10174C003B61FB681B689B693B613B69FB690093D0
:10175C00192301222149F86800F0C6F80346002B32
:10176C0001D0012336E0FB68202283F83D20FB6882
:10177C00002283F83C2000232CE0FB681B681A68CD
:10178C00FB681B6842F400721A60FB681B686FF4FC
:10179C0080625A61FB690093192301220F49F86892
:1017AC0000F0A2F80346002B01D0012312E0BB6924
:1017BC000133BB61BA697B689A42FFF432AFFB68B4
:1017CC00202283F83D20FB68002283F83C20012373
:1017DC0000E0022318462037BD4680BD02001000F1
:1017EC000000FFFF80B588B002AFF8607A603B6004
:1017FC000B467B81FB68DB6A7B617B69082B06D01F
:10180C007B69012B03D07B6913F5803F08D1FB6802
:10181C001B681A68FB681B6842F480721A600BE044
:10182C00FB681B6B122B07D1FB681B681A68FB68E3
:10183C001B6842F480721A603B6800937B6800223C
:10184C004FF00111F86800F04FF80346002B0DD053
:10185C00FB681B681B6803F48073B3F5807F03D1AE
:10186C00FB684FF400721A64032335E0FB681B69B4
:10187C00B3F5804F08D17B89DBB21A46FB681B6835
:10188C0002F0FE021A611BE07B89DB11DBB203F074
:10189C000603DBB263F00F03DAB2FB681B681A6154
:1018AC003B687A680E49F86800F098F80346002BFC
:1018BC0001D0012310E07B89DAB2FB681B681A6146
:1018CC003B687A680749F86800F088F80346002BF3
:1018DC0001D0012300E0002318461837BD4680BD17
:1018EC00080001000200010080B584B000AFF86070
:1018FC00B9603B601346FB7148E03B68B3F1FF3FB6
:10190C0044D0FFF727F90246BB69D31A3A689A42CA
:10191C0002D33B68002B39D1BB681B0CDBB2012B0B
:10192C000DD1FB681B685B69DA43BB6813409BB243
:10193C00002B0CBF01230023DBB21A460CE0FB6822
:10194C001B689B69DA43BB6813409BB2002B0CBF2E
:10195C0001230023DBB21A46FB799A4216D1FB68AD
:10196C0000221A63FB68202283F83D20FB680022CA
:10197C0083F83E20FB681B6C43F02002FB681A6462
:10198C00FB68002283F83C20012323E0BB681B0C7E
:10199C00DBB2012B0DD1FB681B685B69DA43BB68BA
:1019AC0013409BB2002B0CBF01230023DBB21A4661
:1019BC000CE0FB681B689B69DA43BB6813409BB265
:1019CC00002B0CBF01230023DBB21A46FB799A4291
:1019DC0093D0002318461037BD4680BD80B584B027
:1019EC0000AFF860B9607A603B6071E0FB681B681F
:1019FC005B6903F48063B3F5806F23D1FB681B68CC
:101A0C001A68FB681B6842F400721A60FB681B685A
:101A1C006FF480625A61FB6800221A63FB68202213
:101A2C0083F83D20FB68002283F83E20FB681B6C8A
:101A3C0043F00402FB681A64FB68002283F83C2024
:101A4C00012367E07B68B3F1FF3F41D0FFF782F8D9
:101A5C0002463B68D31A7A689A4202D37B68002B01
:101A6C0036D1BB681B0CDBB2012B0CD1FB681B689D
:101A7C005B69DA43BB6813409BB2002B14BF012394
:101A8C000023DBB20BE0FB681B689B69DA43BB6885
:101A9C0013409BB2002B14BF01230023DBB2002B9D
:101AAC0016D0FB6800221A63FB68202283F83D20C5
:101ABC00FB68002283F83E20FB681B6C43F020027D
:101ACC00FB681A64FB68002283F83C20012321E0A8
:101ADC00BB681B0CDBB2012B0CD1FB681B685B6970
:101AEC00DA43BB6813409BB2002B14BF01230023C5
:101AFC00DBB20BE0FB681B689B69DA43BB681340E5
:101B0C009BB2002B14BF01230023DBB2002B7FF40C
:101B1C006DAF002318461037BD4680BD80B584B02C
:101B2C0000AFF860B9607A6034E0F86800F086F8CD
:101B3C000346002B01D0012334E0BB68B3F1FF3F17
:101B4C0028D0FFF707F802467B68D31ABA689A4286
:101B5C0002D3BB68002B1DD1FB681B685B6903F0CB
:101B6C008003802B16D0FB6800221A63FB682022AE
:101B7C0083F83D20FB68002283F83E20FB681B6C39
:101B8C0043F02002FB681A64FB68002283F83C20B7
:101B9C00012307E0FB681B685B6903F08003802B63
:101BAC00C3D1002318461037BD4680BD80B584B024
:101BBC0000AFF860B9607A6034E0F86800F03EF885
:101BCC000346002B01D0012334E0BB68B3F1FF3F87
:101BDC0028D0FEF7BFFF02467B68D31ABA689A4238
:101BEC0002D3BB68002B1DD1FB681B685B6903F03B
:101BFC000403042B16D0FB6800221A63FB68202216
:101C0C0083F83D20FB68002283F83E20FB681B6CA8
:101C1C0043F02002FB681A64FB68002283F83C2026
:101C2C00012307E0FB681B685B6903F00403042BCA
:101C3C00C3D1002318461037BD4680BD80B483B095
:101C4C0000AF78607B681B685B6903F48063B3F555
:101C5C00806F1BD17B681B686FF480625A617B6854
:101C6C0000221A637B68202283F83D207B680022C7
:101C7C0083F83E207B681B6C43F004027B681A647B
:101C8C007B68002283F83C20012300E000231846E7
:101C9C000C37BD4680BC704780B586B000AF78600D
:101CAC007B68002B01D101236CE27B681B6803F07D
:101CBC000103002B00F08780924B5B6803F00C0350
:101CCC00042B0CD08F4B5B6803F00C03082B12D148
:101CDC008C4B5B6803F48033B3F5803F0BD1894B9D
:101CEC001B6803F40033002B6CD07B685B68002B03
:101CFC0068D1012346E27B685B68B3F5803F06D16F
:101D0C00804B1B687F4A43F4803313602EE07B6862
:101D1C005B68002B0CD17B4B1B687A4A23F4803315
:101D2C001360784B1B68774A23F4802313601DE003
:101D3C007B685B68B3F5A02F0CD1724B1B68714AA2
:101D4C0043F4802313606F4B1B686E4A43F480335B
:101D5C0013600BE06B4B1B686A4A23F480331360EF
:101D6C00684B1B68674A23F4802313607B685B68AD
:101D7C00002B13D0FEF7EEFE386108E0FEF7EAFE0A
:101D8C0002463B69D31A642B01D90323FAE15D4B5C
:101D9C001B6803F40033002BF0D014E0FEF7DAFEDE
:101DAC00386108E0FEF7D6FE02463B69D31A642B75
:101DBC0001D90323E6E1534B1B6803F40033002BDA
:101DCC00F0D100E000BF7B681B6803F00203002B1E
:101DDC0063D04C4B5B6803F00C03002B0BD0494BCE
:101DEC005B6803F00C03082B1CD1464B5B6803F4B7
:101DFC008033002B16D1434B1B6803F00203002BDE
:101E0C0005D07B681B69012B01D00123BAE13D4B46
:101E1C001B6823F0F8027B685B69DB0039491343CC
:101E2C000B603AE07B681B69002B20D0364B0122FB
:101E3C001A60FEF78FFE386108E0FEF78BFE024653
:101E4C003B69D31A022B01D903239BE12D4B1B6851
:101E5C0003F00203002BF0D02A4B1B6823F0F8028E
:101E6C007B685B69DB00274913430B6015E0264B4D
:101E7C0000221A60FEF76EFE386108E0FEF76AFE7B
:101E8C0002463B69D31A022B01D903237AE11D4B7D
:101E9C001B6803F00203002BF0D17B681B6803F076
:101EAC000803002B3AD07B689B69002B19D0174B89
:101EBC0001221A60FEF74EFE386108E0FEF74AFE7A
:101ECC0002463B69D31A022B01D903235AE10D4B6D
:101EDC005B6A03F00203002BF0D0012000F0B8FA8B
:101EEC001CE00A4B00221A60FEF734FE38610FE04A
:101EFC00FEF730FE02463B69D31A022B08D90323A6
:101F0C0040E100BF00100240000042428004424207
:101F1C009E4B5B6A03F00203002BE9D17B681B68C4
:101F2C0003F00403002B00F0A6800023FB75974BF5
:101F3C00DB6903F08053002B0DD1944BDB69934A82
:101F4C0043F08053D361914BDB6903F08053BB604A
:101F5C00BB680123FB758E4B1B6803F48073002B4D
:101F6C0018D18B4B1B688A4A43F480731360FEF7BD
:101F7C00F1FD386108E0FEF7EDFD02463B69D31A2E
:101F8C00642B01D90323FDE0814B1B6803F48073A0
:101F9C00002BF0D07B68DB68012B06D17B4B1B6AD6
:101FAC007A4A43F0010313622DE07B68DB68002B57
:101FBC000CD1764B1B6A754A23F001031362734BE9
:101FCC001B6A724A23F0040313621CE07B68DB6813
:101FDC00052B0CD16D4B1B6A6C4A43F00403136246
:101FEC006A4B1B6A694A43F0010313620BE0674BAF
:101FFC001B6A664A23F001031362644B1B6A634A33
:10200C0023F0040313627B68DB68002B15D0FEF70A
:10201C00A1FD38610AE0FEF79DFD02463B69D31A2B
:10202C0041F28832934201D90323ABE0574B1B6A30
:10203C0003F00203002BEED014E0FEF78BFD3861A9
:10204C000AE0FEF787FD02463B69D31A41F288325B
:10205C00934201D9032395E04C4B1B6A03F0020316
:10206C00002BEED1FB7D012B05D1484BDB69474A98
:10207C0023F08053D3617B68DB69002B00F08180F7
:10208C00424B5B6803F00C03082B61D07B68DB6967
:10209C00022B46D13F4B00221A60FEF75BFD3861E4
:1020AC0008E0FEF757FD02463B69D31A022B01D913
:1020BC00032367E0354B1B6803F00073002BF0D152
:1020CC007B681B6AB3F5803F08D1304B5B6823F407
:1020DC0000327B689B682D4913434B602B4B5B682C
:1020EC0023F474127B68196A7B685B6A0B4327497B
:1020FC0013434B60274B01221A60FEF72BFD38610E
:10210C0008E0FEF727FD02463B69D31A022B01D9E2
:10211C00032337E01D4B1B6803F00073002BF0D03A
:10212C002FE01C4B00221A60FEF714FD386108E00A
:10213C00FEF710FD02463B69D31A022B01D903238B
:10214C0020E0124B1B6803F00073002BF0D118E059
:10215C007B68DB69012B01D1012313E00B4B5B681E
:10216C00FB60FB6803F480327B681B6A9A4206D1E1
:10217C00FB6803F470127B685B6A9A4201D00123FE
:10218C0000E0002318461837BD4680BD0010024001
:10219C00007000406000424280B584B000AF7860AF
:1021AC0039607B68002B01D10123D0E06A4B1B689E
:1021BC0003F007033A689A4210D9674B1B6823F067
:1021CC00070265493B6813430B60634B1B6803F0C4
:1021DC0007033A689A4201D00123B8E07B681B6878
:1021EC0003F00203002B20D07B681B6803F0040370
:1021FC00002B05D0594B5B68584A43F4E06353609D
:10220C007B681B6803F00803002B05D0534B5B68FD
:10221C00524A43F460535360504B5B6823F0F00216
:10222C007B689B684D4913434B607B681B6803F0CC
:10223C000103002B40D07B685B68012B07D1474B17
:10224C001B6803F40033002B15D101237FE07B685E
:10225C005B68022B07D1414B1B6803F00073002B0A
:10226C0009D1012373E03D4B1B6803F00203002BE3
:10227C0001D101236BE0394B5B6823F003027B68CF
:10228C005B68364913434B60FEF764FCF8600AE068
:10229C00FEF760FC0246FB68D31A41F28832934287
:1022AC0001D9032353E02D4B5B6803F00C027B68D0
:1022BC005B689B009A42EBD1274B1B6803F007032A
:1022CC003A689A4210D2244B1B6823F00702224929
:1022DC003B6813430B60204B1B6803F007033A6801
:1022EC009A4201D0012332E07B681B6803F004039F
:1022FC00002B08D0194B5B6823F4E0627B68DB6829
:10230C00164913434B607B681B6803F00803002BD2
:10231C0009D0124B5B6823F460527B681B69DB00AD
:10232C000E4913434B6000F021F802460B4B5B68DF
:10233C001B0903F00F030A49CB5C22FA03F3094A89
:10234C001360094B1B681846FEF7C2FB00231846A6
:10235C001037BD4680BD00BF002002400010024077
:10236C00702C0008100000201400002080B487B0EE
:10237C0000AF0023FB600023BB6000237B610023C4
:10238C007B6000233B611E4B5B68FB60FB6803F0CA
:10239C000C03042B02D0082B03D027E0194B3B6114
:1023AC0027E0FB689B0C03F00F03174AD35C7B60A0
:1023BC00FB6803F48033002B10D0114B5B685B0C73
:1023CC0003F00103114AD35CBB607B680D4A02FB2E
:1023DC0003F2BB68B2FBF3F37B6104E07B680C4A4D
:1023EC0002FB03F37B617B693B6102E0054B3B61C4
:1023FC0000BF3B6918461C37BD4680BC704700BF08
:10240C000010024000127A00882C0008982C00085A
:10241C0000093D0080B400AF024B1B681846BD4656
:10242C0080BC70471000002080B500AFFFF7F2FFB2
:10243C000246054B5B681B0A03F007030349CB5CA0
:10244C0022FA03F3184680BD00100240802C0008CD
:10245C0080B485B000AF78600A4B1B680A4AA2FBB7
:10246C0003235B0A7A6802FB03F3FB6000BFFB6883
:10247C005A1EFA60002BF9D100BF00BF1437BD46BD
:10248C0080BC704710000020D34D621080B582B024
:10249C0000AF78607B68002B01D1012341E07B68A1
:1024AC0093F83D30DBB2002B06D17B68002283F819
:1024BC003C207868FEF774FA7B68022283F83D2092
:1024CC007B681A687B6804331946104600F008FADA
:1024DC007B68012283F846207B68012283F83E202A
:1024EC007B68012283F83F207B68012283F840201F
:1024FC007B68012283F841207B68012283F842200B
:10250C007B68012283F843207B68012283F84420F6
:10251C007B68012283F845207B68012283F83D20EB
:10252C00002318460837BD4680BD80B584B000AF87
:10253C0078607B681B68DB68FB607B681B681B69C9
:10254C00BB60BB6803F00203002B20D0FB6803F0D8
:10255C000203002B1BD07B681B686FF002021A6110
:10256C007B6801221A777B681B689B6903F0030365
:10257C00002B03D0786800F098F905E0786800F03B
:10258C008BF9786800F09AF97B6800221A77BB689F
:10259C0003F00403002B20D0FB6803F00403002B92
:1025AC001BD07B681B686FF004021A617B680222E7
:1025BC001A777B681B689B6903F44073002B03D06C
:1025CC00786800F072F905E0786800F065F97868D1
:1025DC0000F074F97B6800221A77BB6803F00803DB
:1025EC00002B20D0FB6803F00803002B1BD07B686A
:1025FC001B686FF008021A617B6804221A777B68EB
:10260C001B68DB6903F00303002B03D0786800F030
:10261C004CF905E0786800F03FF9786800F04EF965
:10262C007B6800221A77BB6803F01003002B20D0C4
:10263C00FB6803F01003002B1BD07B681B686FF04A
:10264C0010021A617B6808221A777B681B68DB69A9
:10265C0003F44073002B03D0786800F026F905E0F2
:10266C00786800F019F9786800F028F97B68002286
:10267C001A77BB6803F00103002B0CD0FB6803F046
:10268C000103002B07D07B681B686FF001021A61F5
:10269C007868FEF7D7F8BB6803F08003002B0CD0EA
:1026AC00FB6803F08003002B07D07B681B686FF07E
:1026BC0080021A61786800F07EFABB6803F0400370
:1026CC00002B0CD0FB6803F04003002B07D07B6879
:1026DC001B686FF040021A61786800F0F8F8BB686C
:1026EC0003F02003002B0CD0FB6803F02003002B1D
:1026FC0007D07B681B686FF020021A61786800F0C5
:10270C0051FA00BF1037BD4680BD80B584B000AF14
:10271C00786039600023FB737B6893F83C30012BA5
:10272C0001D10223B4E07B68012283F83C207B6852
:10273C00022283F83D207B681B689B68BB60BB68EA
:10274C0023F07703BB60BB6823F47F43BB607B68DB
:10275C001B68BA689A603B681B68B3F5005F3ED093
:10276C00B3F5005F00F28780B3F5805F00F08680E0
:10277C00B3F5805F7FD8702B1AD0702B7BD8602B71
:10278C0050D0602B77D8502B3CD0502B73D8402B8B
:10279C0058D0402B6FD8302B64D0302B6BD8202BDB
:1027AC0060D0202B67D8002B5CD0102B5AD062E065
:1027BC007B6818683B6899683B685A683B68DB68BB
:1027CC0000F073F97B681B689B68BB60BB6843F0C7
:1027DC007703BB607B681B68BA689A604FE07B68C4
:1027EC0018683B6899683B685A683B68DB6800F07E
:1027FC005CF97B681B689A687B681B6842F48042B2
:10280C009A603CE07B6818683B6859683B68DB68F9
:10281C001A4600F0D3F87B681B685021184600F06C
:10282C002AF92CE07B6818683B6859683B68DB68C0
:10283C001A4600F0F1F87B681B686021184600F01E
:10284C001AF91CE07B6818683B6859683B68DB68C0
:10285C001A4600F0B3F87B681B684021184600F05C
:10286C000AF90CE07B681A683B681B68194610462D
:10287C0000F001F903E00123FB7300E000BF7B686B
:10288C00012283F83D207B68002283F83C20FB7BEF
:10289C0018461037BD4680BD80B483B000AF786059
:1028AC0000BF0C37BD4680BC704780B483B000AF0E
:1028BC00786000BF0C37BD4680BC704780B483B0D5
:1028CC0000AF786000BF0C37BD4680BC704780B449
:1028DC0083B000AF786000BF0C37BD4680BC70473A
:1028EC0080B485B000AF786039607B681B68FB6092
:1028FC007B682F4A93420BD07B68B3F1804F07D093
:10290C007B682C4A934203D07B682B4A934208D1B4
:10291C00FB6823F07003FB603B685B68FA68134349
:10292C00FB607B68224A93420BD07B68B3F1804FEB
:10293C0007D07B681F4A934203D07B681E4A9342A0
:10294C0008D1FB6823F44073FB603B68DB68FA68D2
:10295C001343FB60FB6823F080023B685B69134305
:10296C00FB607B68FA681A603B689A687B68DA627D
:10297C003B681A687B689A627B680D4A934203D164
:10298C003B681A697B681A637B6801225A617B6811
:10299C001B6903F00103002B05D07B681B6923F036
:1029AC0001027B681A6100BF1437BD4680BC7047BA
:1029BC00002C0140000400400008004080B487B0A7
:1029CC0000AFF860B9607A60FB681B6A7B61FB68DA
:1029DC001B6A23F00102FB681A62FB689B693B616E
:1029EC003B6923F0F0033B617B681B013A6913439D
:1029FC003B617B6923F00A037B617A69BB681343F3
:102A0C007B61FB683A699A61FB687A691A6200BF5C
:102A1C001C37BD4680BC704780B487B000AFF860EF
:102A2C00B9607A60FB681B6A7B61FB681B6A23F0E8
:102A3C001002FB681A62FB689B693B613B6923F4DB
:102A4C0070433B617B681B033A6913433B617B69B1
:102A5C0023F0A0037B61BB681B017A6913437B6184
:102A6C00FB683A699A61FB687A691A6200BF1C3785
:102A7C00BD4680BC704780B485B000AF78603960CB
:102A8C007B689B68FB60FB6823F07003FB603A6813
:102A9C00FB68134343F00703FB607B68FA689A609A
:102AAC0000BF1437BD4680BC704780B487B000AF00
:102ABC00F860B9607A603B60FB689B687B617B69FE
:102ACC0023F47F437B613B681A027B681A43BB6823
:102ADC0013437A6913437B61FB687A699A6000BF80
:102AEC001C37BD4680BC704780B485B000AF7860A1
:102AFC0039607B6893F83C30012B01D1022346E00E
:102B0C007B68012283F83C207B68022283F83D20FD
:102B1C007B681B685B68FB607B681B689B68BB60A1
:102B2C00FB6823F07003FB603B681B68FA68134377
:102B3C00FB607B681B68FA685A607B681B68164AE6
:102B4C0093420ED07B681B68B3F1804F09D07B6831
:102B5C001B68124A934204D07B681B68104A93424C
:102B6C000CD1BB6823F08003BB603B685B68BA6820
:102B7C001343BB607B681B68BA689A607B68012250
:102B8C0083F83D207B68002283F83C200023184604
:102B9C001437BD4680BC7047002C01400004004037
:102BAC000008004080B483B000AF786000BF0C37E1
:102BBC00BD4680BC704780B483B000AF786000BF66
:102BCC000C37BD4680BC704770B500260C4D0D4CC3
:102BDC00641BA410A64209D100F022F800260A4D6D
:102BEC000A4C641BA410A64205D170BD55F8043BD9
:102BFC0098470136EEE755F8043B98470136F2E763
:102C0C009C2C00089C2C00089C2C0008A02C000874
:102C1C0003460244934200D1704703F8011BF9E7C5
:102C2C00F8B500BFF8BC08BC9E467047F8B500BFAD
:082C3C00F8BC08BC9E4670477D
:102C440000000000400000001400000054000000D8
:102C540057656C636F6D6520546F00004369726340
:102C64007569744761746F72204851000000000058
:102C74000000000001020304060708090000000028
:102C84000102030402030405060708090A0B0C0DDC
:082C94000E0F101001020000F8
:042C9C0031010008FA
:042CA0000D0100081A
:102CA40000191B060C1B1300181806090809060056
:0C2CB40000127A00100000000100000077
:0400000508000A6580
:00000001FF
